{
  "_format": "hh-sol-artifact-1",
  "contractName": "Groth16Verifier",
  "sourceName": "contracts/Verifier.sol",
  "abi": [
    {
      "inputs": [
        {
          "internalType": "uint256[2]",
          "name": "_pA",
          "type": "uint256[2]"
        },
        {
          "internalType": "uint256[2][2]",
          "name": "_pB",
          "type": "uint256[2][2]"
        },
        {
          "internalType": "uint256[2]",
          "name": "_pC",
          "type": "uint256[2]"
        },
        {
          "internalType": "uint256[2]",
          "name": "_pubSignals",
          "type": "uint256[2]"
        }
      ],
      "name": "verifyProof",
      "outputs": [
        {
          "internalType": "bool",
          "name": "",
          "type": "bool"
        }
      ],
      "stateMutability": "view",
      "type": "function"
    }
  ],
  "bytecode": "0x608060405234801561001057600080fd5b5061063c806100206000396000f3fe608060405234801561001057600080fd5b506004361061002b5760003560e01c8063f5c9d69e14610030575b600080fd5b61004a60048036038101906100459190610567565b610060565b60405161005791906105eb565b60405180910390f35b60006104dd565b7f30644e72e131a029b85045b68181585d2833e84879b9709143e1f593f00000018110610098576000805260206000f35b50565b600060405183815284602082015285604082015260408160608360076107d05a03fa9150816100ce576000805260206000f35b825160408201526020830151606082015260408360808360066107d05a03fa9150816100fe576000805260206000f35b505050505050565b600060808601600087017f0129139ef3a0d2e65486d812a641e4620e199bd252d4aa7617cedc694051398481527f01864cd6bc62d2848946a5077aea859ec263580be22fd0945aef4e36e49c0c8d60208201526101a960008801357f0882c567a865441ac2dea8e6d8c78b6e43662d2fe1e91b57c4ca06c6d70218f77f0999dbd8f871953feacf8c80d2ba951934cb0f0582e9752a999c877df928630d8461009b565b6101f960208801357f282d60e07971f5341eeec266ed2d389804dd48c26b8456a905de314ceb76c9f77f15dc074d9b0dabaeec90bfc4ee0ba4609f2778059724029c2ffe921f99eb3be58461009b565b833582527f30644e72e131a029b85045b68181585d97816a916871ca8d3c208c16d87cfd4760208501357f30644e72e131a029b85045b68181585d97816a916871ca8d3c208c16d87cfd4703066020830152843560408301526020850135606083015260408501356080830152606085013560a08301527f2d4d9aa7e302d9df41749d5507949d05dbea33fbb16c643b22f599a2be6df2e260c08301527f14bedd503c37ceb061d8ec60209fe345ce89830a19230301f076caff004d192660e08301527f0967032fcbf776d1afc985f88877f182d38480a653f2decaa9794cbc3bf3060c6101008301527f0e187847ad4c798374d0d6732bf501847dd68bc0e071241e0213bc7fc13db7ab6101208301527f304cfbd1e08a704a99f5e847d93f8c3caafddec46b7a0d379da69a4d112346a76101408301527f1739c1b1a457a8c7313123d24d2f9192f896b7c63eea05a9d57f06547ad0cec8610160830152600088015161018083015260206000018801516101a08301527f198e9393920d483a7260bfb731fb5d25f1aa493335a9e71297e485b7aef312c26101c08301527f1800deef121f1e76426a00665e5c4479674322d4f75edadd46debd5cd992f6ed6101e08301527f090689d0585ff075ec9e99ad690c3395bc4b313370b38ef355acdadcd122975b6102008301527f12c85ea5db8c6deb4aab71808dcb408fe3d1e7690c43d37b4ce6cc0166fa7daa610220830152853561024083015260208601356102608301527f198e9393920d483a7260bfb731fb5d25f1aa493335a9e71297e485b7aef312c26102808301527f1800deef121f1e76426a00665e5c4479674322d4f75edadd46debd5cd992f6ed6102a08301527f090689d0585ff075ec9e99ad690c3395bc4b313370b38ef355acdadcd122975b6102c08301527f12c85ea5db8c6deb4aab71808dcb408fe3d1e7690c43d37b4ce6cc0166fa7daa6102e08301526020826103008460086107d05a03fa82518116935050505095945050505050565b60405161038081016040526104f56000840135610067565b6105026020840135610067565b61050f818486888a610106565b8060005260206000f35b600080fd5b600080fd5b60008190508260206002028201111561053f5761053e61051e565b5b92915050565b6000819050826040600202820111156105615761056061051e565b5b92915050565b600080600080610140858703121561058257610581610519565b5b600061059087828801610523565b94505060406105a187828801610545565b93505060c06105b287828801610523565b9250506101006105c487828801610523565b91505092959194509250565b60008115159050919050565b6105e5816105d0565b82525050565b600060208201905061060060008301846105dc565b9291505056fea264697066735822122007560bee9c07ab34d43dc71deff57ad975000ad314ebe4070dc511adcf889e9c64736f6c63430008130033",
  "linkReferences": {},
  "deployedLinkReferences": {}
}