{
  "_format": "hh-sol-artifact-1",
  "contractName": "VaultZkWei",
  "sourceName": "contracts/VaultZkWei.sol",
  "abi": [
    {
      "inputs": [
        {
          "internalType": "address",
          "name": "verifierAddress",
          "type": "address"
        }
      ],
      "stateMutability": "nonpayable",
      "type": "constructor"
    },
    {
      "anonymous": false,
      "inputs": [
        {
          "indexed": false,
          "internalType": "bytes32",
          "name": "commitment",
          "type": "bytes32"
        },
        {
          "indexed": false,
          "internalType": "uint8",
          "name": "idx",
          "type": "uint8"
        },
        {
          "indexed": false,
          "internalType": "bytes32",
          "name": "root",
          "type": "bytes32"
        }
      ],
      "name": "Deposited",
      "type": "event"
    },
    {
      "anonymous": false,
      "inputs": [
        {
          "indexed": false,
          "internalType": "address",
          "name": "to",
          "type": "address"
        },
        {
          "indexed": false,
          "internalType": "bytes32",
          "name": "nullifierHash",
          "type": "bytes32"
        }
      ],
      "name": "Withdrawn",
      "type": "event"
    },
    {
      "inputs": [],
      "name": "AMOUNT",
      "outputs": [
        {
          "internalType": "uint256",
          "name": "",
          "type": "uint256"
        }
      ],
      "stateMutability": "view",
      "type": "function"
    },
    {
      "inputs": [],
      "name": "currentRoot",
      "outputs": [
        {
          "internalType": "bytes32",
          "name": "",
          "type": "bytes32"
        }
      ],
      "stateMutability": "view",
      "type": "function"
    },
    {
      "inputs": [
        {
          "internalType": "bytes32",
          "name": "commitment",
          "type": "bytes32"
        }
      ],
      "name": "deposit",
      "outputs": [],
      "stateMutability": "payable",
      "type": "function"
    },
    {
      "inputs": [
        {
          "internalType": "uint256",
          "name": "",
          "type": "uint256"
        }
      ],
      "name": "leaves",
      "outputs": [
        {
          "internalType": "bytes32",
          "name": "",
          "type": "bytes32"
        }
      ],
      "stateMutability": "view",
      "type": "function"
    },
    {
      "inputs": [],
      "name": "nextIdx",
      "outputs": [
        {
          "internalType": "uint8",
          "name": "",
          "type": "uint8"
        }
      ],
      "stateMutability": "view",
      "type": "function"
    },
    {
      "inputs": [
        {
          "internalType": "bytes32",
          "name": "",
          "type": "bytes32"
        }
      ],
      "name": "nullifierUsed",
      "outputs": [
        {
          "internalType": "bool",
          "name": "",
          "type": "bool"
        }
      ],
      "stateMutability": "view",
      "type": "function"
    },
    {
      "inputs": [
        {
          "internalType": "uint256[2]",
          "name": "a",
          "type": "uint256[2]"
        },
        {
          "internalType": "uint256[2][2]",
          "name": "b",
          "type": "uint256[2][2]"
        },
        {
          "internalType": "uint256[2]",
          "name": "c",
          "type": "uint256[2]"
        },
        {
          "internalType": "uint256",
          "name": "nullifierHash",
          "type": "uint256"
        },
        {
          "internalType": "uint256",
          "name": "root",
          "type": "uint256"
        },
        {
          "internalType": "address payable",
          "name": "to",
          "type": "address"
        }
      ],
      "name": "withdraw",
      "outputs": [],
      "stateMutability": "nonpayable",
      "type": "function"
    },
    {
      "stateMutability": "payable",
      "type": "receive"
    }
  ],
  "bytecode": "0x60806040523480156200001157600080fd5b50604051620014b1380380620014b18339818101604052810190620000379190620000e8565b806000806101000a81548173ffffffffffffffffffffffffffffffffffffffff021916908373ffffffffffffffffffffffffffffffffffffffff160217905550506200011a565b600080fd5b600073ffffffffffffffffffffffffffffffffffffffff82169050919050565b6000620000b08262000083565b9050919050565b620000c281620000a3565b8114620000ce57600080fd5b50565b600081519050620000e281620000b7565b92915050565b6000602082840312156200010157620001006200007e565b5b60006200011184828501620000d1565b91505092915050565b611387806200012a6000396000f3fe6080604052600436106100745760003560e01c8063d17891761161004e578063d178917614610104578063d455a79d1461012f578063e2dd34111461016c578063fdab463d146101955761007b565b80636f403b5c146100805780637ecf686d146100ab578063b214faa5146100e85761007b565b3661007b57005b600080fd5b34801561008c57600080fd5b506100956101c0565b6040516100a29190610909565b60405180910390f35b3480156100b757600080fd5b506100d260048036038101906100cd919061095f565b6101d3565b6040516100df91906109a7565b60405180910390f35b61010260048036038101906100fd919061095f565b6101f3565b005b34801561011057600080fd5b50610119610346565b60405161012691906109db565b60405180910390f35b34801561013b57600080fd5b5061015660048036038101906101519190610a22565b61034b565b6040516101639190610a5e565b60405180910390f35b34801561017857600080fd5b50610193600480360381019061018e9190610b20565b610366565b005b3480156101a157600080fd5b506101aa610625565b6040516101b79190610a5e565b60405180910390f35b600960009054906101000a900460ff1681565b600b6020528060005260406000206000915054906101000a900460ff1681565b60013414610236576040517f08c379a000000000000000000000000000000000000000000000000000000000815260040161022d90610c0e565b60405180910390fd5b6008600960009054906101000a900460ff1660ff161061028b576040517f08c379a000000000000000000000000000000000000000000000000000000000815260040161028290610c7a565b60405180910390fd5b806001600960009054906101000a900460ff1660ff16600881106102b2576102b1610c9a565b5b01819055506102bf61062b565b7f6960495b0377f7ce8cea32cf5ec52e4846125ac718809fb49f2ac177c971842b81600960009054906101000a900460ff16600a5460405161030393929190610cc9565b60405180910390a16009600081819054906101000a900460ff168092919061032a90610d2f565b91906101000a81548160ff021916908360ff1602179055505050565b600181565b6001816008811061035b57600080fd5b016000915090505481565b600a5460001c82146103ad576040517f08c379a00000000000000000000000000000000000000000000000000000000081526004016103a490610da4565b60405180910390fd5b60008360001b9050600b600082815260200190815260200160002060009054906101000a900460ff1615610416576040517f08c379a000000000000000000000000000000000000000000000000000000000815260040161040d90610e10565b60405180910390fd5b60008054906101000a900473ffffffffffffffffffffffffffffffffffffffff1673ffffffffffffffffffffffffffffffffffffffff1663f5c9d69e88888860405180604001604052808981526020018a8152506040518563ffffffff1660e01b81526004016104899493929190610fb3565b602060405180830381865afa1580156104a6573d6000803e3d6000fd5b505050506040513d601f19601f820116820180604052508101906104ca9190611026565b610509576040517f08c379a00000000000000000000000000000000000000000000000000000000081526004016105009061109f565b60405180910390fd5b6001600b600083815260200190815260200160002060006101000a81548160ff02191690831515021790555060008273ffffffffffffffffffffffffffffffffffffffff16600160405161055c906110f0565b60006040518083038185875af1925050503d8060008114610599576040519150601f19603f3d011682016040523d82523d6000602084013e61059e565b606091505b50509050806105e2576040517f08c379a00000000000000000000000000000000000000000000000000000000081526004016105d990611151565b60405180910390fd5b7f6ecbc70c26b02b821204839571ea973742fdc445dbfd00b71c513370f5d458ad83836040516106139291906111d0565b60405180910390a15050505050505050565b600a5481565b60006001600880602002604051908101604052809291908260088015610666576020028201915b815481526020019060010190808311610652575b505050505090506106756108a9565b61067d6108cb565b60005b60048160ff161015610720576106ee8482600261069d91906111f9565b60ff16600881106106b1576106b0610c9a565b5b60200201518560018460026106c691906111f9565b6106d09190611236565b60ff16600881106106e4576106e3610c9a565b5b602002015161080a565b838260ff166004811061070457610703610c9a565b5b602002018181525050808061071890610d2f565b915050610680565b5060005b60028160ff1610156107c4576107928382600261074191906111f9565b60ff166004811061075557610754610c9a565b5b602002015184600184600261076a91906111f9565b6107749190611236565b60ff166004811061078857610787610c9a565b5b602002015161080a565b828260ff16600281106107a8576107a7610c9a565b5b60200201818152505080806107bc90610d2f565b915050610724565b506107ff816000600281106107dc576107db610c9a565b5b6020020151826001600281106107f5576107f4610c9a565b5b602002015161080a565b600a81905550505050565b600073__$75f79a42d9bcbdbb69ad79ebd80f556f39$__63561558fe60405180604001604052808660001c81526020018560001c8152506040518263ffffffff1660e01b815260040161085d91906112f4565b602060405180830381865af415801561087a573d6000803e3d6000fd5b505050506040513d601f19601f8201168201806040525081019061089e9190611324565b60001b905092915050565b6040518060800160405280600490602082028036833780820191505090505090565b6040518060400160405280600290602082028036833780820191505090505090565b600060ff82169050919050565b610903816108ed565b82525050565b600060208201905061091e60008301846108fa565b92915050565b600080fd5b6000819050919050565b61093c81610929565b811461094757600080fd5b50565b60008135905061095981610933565b92915050565b60006020828403121561097557610974610924565b5b60006109838482850161094a565b91505092915050565b60008115159050919050565b6109a18161098c565b82525050565b60006020820190506109bc6000830184610998565b92915050565b6000819050919050565b6109d5816109c2565b82525050565b60006020820190506109f060008301846109cc565b92915050565b6109ff816109c2565b8114610a0a57600080fd5b50565b600081359050610a1c816109f6565b92915050565b600060208284031215610a3857610a37610924565b5b6000610a4684828501610a0d565b91505092915050565b610a5881610929565b82525050565b6000602082019050610a736000830184610a4f565b92915050565b600080fd5b600081905082602060020282011115610a9a57610a99610a79565b5b92915050565b600081905082604060020282011115610abc57610abb610a79565b5b92915050565b600073ffffffffffffffffffffffffffffffffffffffff82169050919050565b6000610aed82610ac2565b9050919050565b610afd81610ae2565b8114610b0857600080fd5b50565b600081359050610b1a81610af4565b92915050565b6000806000806000806101608789031215610b3e57610b3d610924565b5b6000610b4c89828a01610a7e565b9650506040610b5d89828a01610aa0565b95505060c0610b6e89828a01610a7e565b945050610100610b8089828a01610a0d565b935050610120610b9289828a01610a0d565b925050610140610ba489828a01610b0b565b9150509295509295509295565b600082825260208201905092915050565b7f6e65656420312077656900000000000000000000000000000000000000000000600082015250565b6000610bf8600a83610bb1565b9150610c0382610bc2565b602082019050919050565b60006020820190508181036000830152610c2781610beb565b9050919050565b7f747265652066756c6c0000000000000000000000000000000000000000000000600082015250565b6000610c64600983610bb1565b9150610c6f82610c2e565b602082019050919050565b60006020820190508181036000830152610c9381610c57565b9050919050565b7f4e487b7100000000000000000000000000000000000000000000000000000000600052603260045260246000fd5b6000606082019050610cde6000830186610a4f565b610ceb60208301856108fa565b610cf86040830184610a4f565b949350505050565b7f4e487b7100000000000000000000000000000000000000000000000000000000600052601160045260246000fd5b6000610d3a826108ed565b915060ff8203610d4d57610d4c610d00565b5b600182019050919050565b7f62616420726f6f74000000000000000000000000000000000000000000000000600082015250565b6000610d8e600883610bb1565b9150610d9982610d58565b602082019050919050565b60006020820190508181036000830152610dbd81610d81565b9050919050565b7f7370656e74000000000000000000000000000000000000000000000000000000600082015250565b6000610dfa600583610bb1565b9150610e0582610dc4565b602082019050919050565b60006020820190508181036000830152610e2981610ded565b9050919050565b82818337505050565b610e4560408383610e30565b5050565b600060029050919050565b600081905092915050565b6000819050919050565b610e7560408383610e30565b5050565b6000610e858383610e69565b60408301905092915050565b600082905092915050565b6000604082019050919050565b610eb281610e49565b610ebc8184610e54565b9250610ec782610e5f565b8060005b83811015610f0057610edd8284610e91565b610ee78782610e79565b9650610ef283610e9c565b925050600181019050610ecb565b505050505050565b600060029050919050565b600081905092915050565b6000819050919050565b610f31816109c2565b82525050565b6000610f438383610f28565b60208301905092915050565b6000602082019050919050565b610f6581610f08565b610f6f8184610f13565b9250610f7a82610f1e565b8060005b83811015610fab578151610f928782610f37565b9650610f9d83610f4f565b925050600181019050610f7e565b505050505050565b600061014082019050610fc96000830187610e39565b610fd66040830186610ea9565b610fe360c0830185610e39565b610ff1610100830184610f5c565b95945050505050565b6110038161098c565b811461100e57600080fd5b50565b60008151905061102081610ffa565b92915050565b60006020828403121561103c5761103b610924565b5b600061104a84828501611011565b91505092915050565b7f6261642070726f6f660000000000000000000000000000000000000000000000600082015250565b6000611089600983610bb1565b915061109482611053565b602082019050919050565b600060208201905081810360008301526110b88161107c565b9050919050565b600081905092915050565b50565b60006110da6000836110bf565b91506110e5826110ca565b600082019050919050565b60006110fb826110cd565b9150819050919050565b7f7472616e73666572206661696c00000000000000000000000000000000000000600082015250565b600061113b600d83610bb1565b915061114682611105565b602082019050919050565b6000602082019050818103600083015261116a8161112e565b9050919050565b6000819050919050565b600061119661119161118c84610ac2565b611171565b610ac2565b9050919050565b60006111a88261117b565b9050919050565b60006111ba8261119d565b9050919050565b6111ca816111af565b82525050565b60006040820190506111e560008301856111c1565b6111f26020830184610a4f565b9392505050565b6000611204826108ed565b915061120f836108ed565b925082820261121d816108ed565b915080821461122f5761122e610d00565b5b5092915050565b6000611241826108ed565b915061124c836108ed565b9250828201905060ff81111561126557611264610d00565b5b92915050565b600081905092915050565b61127f816109c2565b82525050565b60006112918383611276565b60208301905092915050565b6112a681610f08565b6112b0818461126b565b92506112bb82610f1e565b8060005b838110156112ec5781516112d38782611285565b96506112de83610f4f565b9250506001810190506112bf565b505050505050565b6000604082019050611309600083018461129d565b92915050565b60008151905061131e816109f6565b92915050565b60006020828403121561133a57611339610924565b5b60006113488482850161130f565b9150509291505056fea26469706673582212206c5d8d3d925c82685cd49323c630a22c089dcab3129dec9b254e564d88783dce64736f6c63430008130033",
  "linkReferences": {
    "poseidon-solidity/PoseidonT3.sol": {
      "PoseidonT3": [
        {
          "length": 20,
          "start": 2360
        }
      ]
    }
  },
  "deployedLinkReferences": {
    "poseidon-solidity/PoseidonT3.sol": {
      "PoseidonT3": [
        {
          "length": 20,
          "start": 2062
        }
      ]
    }
  }
}