{"contracts/VaultZkWei.sol":{"VaultZkWei":{"abi":[{"inputs":[{"internalType":"address","name":"verifierAddress","type":"address"}],"stateMutability":"nonpayable","type":"constructor"},{"anonymous":false,"inputs":[{"indexed":false,"internalType":"bytes32","name":"commitment","type":"bytes32"},{"indexed":false,"internalType":"uint8","name":"idx","type":"uint8"},{"indexed":false,"internalType":"bytes32","name":"root","type":"bytes32"}],"name":"Deposited","type":"event"},{"anonymous":false,"inputs":[{"indexed":false,"internalType":"address","name":"to","type":"address"},{"indexed":false,"internalType":"bytes32","name":"nullifierHash","type":"bytes32"}],"name":"Withdrawn","type":"event"},{"inputs":[],"name":"AMOUNT","outputs":[{"internalType":"uint256","name":"","type":"uint256"}],"stateMutability":"view","type":"function"},{"inputs":[],"name":"currentRoot","outputs":[{"internalType":"bytes32","name":"","type":"bytes32"}],"stateMutability":"view","type":"function"},{"inputs":[{"internalType":"bytes32","name":"commitment","type":"bytes32"}],"name":"deposit","outputs":[],"stateMutability":"payable","type":"function"},{"inputs":[{"internalType":"uint256","name":"","type":"uint256"}],"name":"leaves","outputs":[{"internalType":"bytes32","name":"","type":"bytes32"}],"stateMutability":"view","type":"function"},{"inputs":[],"name":"nextIdx","outputs":[{"internalType":"uint8","name":"","type":"uint8"}],"stateMutability":"view","type":"function"},{"inputs":[{"internalType":"bytes32","name":"","type":"bytes32"}],"name":"nullifierUsed","outputs":[{"internalType":"bool","name":"","type":"bool"}],"stateMutability":"view","type":"function"},{"inputs":[{"internalType":"uint256[2]","name":"a","type":"uint256[2]"},{"internalType":"uint256[2][2]","name":"b","type":"uint256[2][2]"},{"internalType":"uint256[2]","name":"c","type":"uint256[2]"},{"internalType":"uint256","name":"nullifierHash","type":"uint256"},{"internalType":"uint256","name":"root","type":"uint256"},{"internalType":"address payable","name":"to","type":"address"}],"name":"withdraw","outputs":[],"stateMutability":"nonpayable","type":"function"},{"stateMutability":"payable","type":"receive"}],"evm":{"bytecode":{"linkReferences":{"poseidon-solidity/PoseidonT3.sol":{"PoseidonT3":[{"length":20,"start":2360}]}},"object":"60806040523480156200001157600080fd5b50604051620014b1380380620014b18339818101604052810190620000379190620000e8565b806000806101000a81548173ffffffffffffffffffffffffffffffffffffffff021916908373ffffffffffffffffffffffffffffffffffffffff160217905550506200011a565b600080fd5b600073ffffffffffffffffffffffffffffffffffffffff82169050919050565b6000620000b08262000083565b9050919050565b620000c281620000a3565b8114620000ce57600080fd5b50565b600081519050620000e281620000b7565b92915050565b6000602082840312156200010157620001006200007e565b5b60006200011184828501620000d1565b91505092915050565b611387806200012a6000396000f3fe6080604052600436106100745760003560e01c8063d17891761161004e578063d178917614610104578063d455a79d1461012f578063e2dd34111461016c578063fdab463d146101955761007b565b80636f403b5c146100805780637ecf686d146100ab578063b214faa5146100e85761007b565b3661007b57005b600080fd5b34801561008c57600080fd5b506100956101c0565b6040516100a29190610909565b60405180910390f35b3480156100b757600080fd5b506100d260048036038101906100cd919061095f565b6101d3565b6040516100df91906109a7565b60405180910390f35b61010260048036038101906100fd919061095f565b6101f3565b005b34801561011057600080fd5b50610119610346565b60405161012691906109db565b60405180910390f35b34801561013b57600080fd5b5061015660048036038101906101519190610a22565b61034b565b6040516101639190610a5e565b60405180910390f35b34801561017857600080fd5b50610193600480360381019061018e9190610b20565b610366565b005b3480156101a157600080fd5b506101aa610625565b6040516101b79190610a5e565b60405180910390f35b600960009054906101000a900460ff1681565b600b6020528060005260406000206000915054906101000a900460ff1681565b60013414610236576040517f08c379a000000000000000000000000000000000000000000000000000000000815260040161022d90610c0e565b60405180910390fd5b6008600960009054906101000a900460ff1660ff161061028b576040517f08c379a000000000000000000000000000000000000000000000000000000000815260040161028290610c7a565b60405180910390fd5b806001600960009054906101000a900460ff1660ff16600881106102b2576102b1610c9a565b5b01819055506102bf61062b565b7f6960495b0377f7ce8cea32cf5ec52e4846125ac718809fb49f2ac177c971842b81600960009054906101000a900460ff16600a5460405161030393929190610cc9565b60405180910390a16009600081819054906101000a900460ff168092919061032a90610d2f565b91906101000a81548160ff021916908360ff1602179055505050565b600181565b6001816008811061035b57600080fd5b016000915090505481565b600a5460001c82146103ad576040517f08c379a00000000000000000000000000000000000000000000000000000000081526004016103a490610da4565b60405180910390fd5b60008360001b9050600b600082815260200190815260200160002060009054906101000a900460ff1615610416576040517f08c379a000000000000000000000000000000000000000000000000000000000815260040161040d90610e10565b60405180910390fd5b60008054906101000a900473ffffffffffffffffffffffffffffffffffffffff1673ffffffffffffffffffffffffffffffffffffffff1663f5c9d69e88888860405180604001604052808981526020018a8152506040518563ffffffff1660e01b81526004016104899493929190610fb3565b602060405180830381865afa1580156104a6573d6000803e3d6000fd5b505050506040513d601f19601f820116820180604052508101906104ca9190611026565b610509576040517f08c379a00000000000000000000000000000000000000000000000000000000081526004016105009061109f565b60405180910390fd5b6001600b600083815260200190815260200160002060006101000a81548160ff02191690831515021790555060008273ffffffffffffffffffffffffffffffffffffffff16600160405161055c906110f0565b60006040518083038185875af1925050503d8060008114610599576040519150601f19603f3d011682016040523d82523d6000602084013e61059e565b606091505b50509050806105e2576040517f08c379a00000000000000000000000000000000000000000000000000000000081526004016105d990611151565b60405180910390fd5b7f6ecbc70c26b02b821204839571ea973742fdc445dbfd00b71c513370f5d458ad83836040516106139291906111d0565b60405180910390a15050505050505050565b600a5481565b60006001600880602002604051908101604052809291908260088015610666576020028201915b815481526020019060010190808311610652575b505050505090506106756108a9565b61067d6108cb565b60005b60048160ff161015610720576106ee8482600261069d91906111f9565b60ff16600881106106b1576106b0610c9a565b5b60200201518560018460026106c691906111f9565b6106d09190611236565b60ff16600881106106e4576106e3610c9a565b5b602002015161080a565b838260ff166004811061070457610703610c9a565b5b602002018181525050808061071890610d2f565b915050610680565b5060005b60028160ff1610156107c4576107928382600261074191906111f9565b60ff166004811061075557610754610c9a565b5b602002015184600184600261076a91906111f9565b6107749190611236565b60ff166004811061078857610787610c9a565b5b602002015161080a565b828260ff16600281106107a8576107a7610c9a565b5b60200201818152505080806107bc90610d2f565b915050610724565b506107ff816000600281106107dc576107db610c9a565b5b6020020151826001600281106107f5576107f4610c9a565b5b602002015161080a565b600a81905550505050565b600073__$75f79a42d9bcbdbb69ad79ebd80f556f39$__63561558fe60405180604001604052808660001c81526020018560001c8152506040518263ffffffff1660e01b815260040161085d91906112f4565b602060405180830381865af415801561087a573d6000803e3d6000fd5b505050506040513d601f19601f8201168201806040525081019061089e9190611324565b60001b905092915050565b6040518060800160405280600490602082028036833780820191505090505090565b6040518060400160405280600290602082028036833780820191505090505090565b600060ff82169050919050565b610903816108ed565b82525050565b600060208201905061091e60008301846108fa565b92915050565b600080fd5b6000819050919050565b61093c81610929565b811461094757600080fd5b50565b60008135905061095981610933565b92915050565b60006020828403121561097557610974610924565b5b60006109838482850161094a565b91505092915050565b60008115159050919050565b6109a18161098c565b82525050565b60006020820190506109bc6000830184610998565b92915050565b6000819050919050565b6109d5816109c2565b82525050565b60006020820190506109f060008301846109cc565b92915050565b6109ff816109c2565b8114610a0a57600080fd5b50565b600081359050610a1c816109f6565b92915050565b600060208284031215610a3857610a37610924565b5b6000610a4684828501610a0d565b91505092915050565b610a5881610929565b82525050565b6000602082019050610a736000830184610a4f565b92915050565b600080fd5b600081905082602060020282011115610a9a57610a99610a79565b5b92915050565b600081905082604060020282011115610abc57610abb610a79565b5b92915050565b600073ffffffffffffffffffffffffffffffffffffffff82169050919050565b6000610aed82610ac2565b9050919050565b610afd81610ae2565b8114610b0857600080fd5b50565b600081359050610b1a81610af4565b92915050565b6000806000806000806101608789031215610b3e57610b3d610924565b5b6000610b4c89828a01610a7e565b9650506040610b5d89828a01610aa0565b95505060c0610b6e89828a01610a7e565b945050610100610b8089828a01610a0d565b935050610120610b9289828a01610a0d565b925050610140610ba489828a01610b0b565b9150509295509295509295565b600082825260208201905092915050565b7f6e65656420312077656900000000000000000000000000000000000000000000600082015250565b6000610bf8600a83610bb1565b9150610c0382610bc2565b602082019050919050565b60006020820190508181036000830152610c2781610beb565b9050919050565b7f747265652066756c6c0000000000000000000000000000000000000000000000600082015250565b6000610c64600983610bb1565b9150610c6f82610c2e565b602082019050919050565b60006020820190508181036000830152610c9381610c57565b9050919050565b7f4e487b7100000000000000000000000000000000000000000000000000000000600052603260045260246000fd5b6000606082019050610cde6000830186610a4f565b610ceb60208301856108fa565b610cf86040830184610a4f565b949350505050565b7f4e487b7100000000000000000000000000000000000000000000000000000000600052601160045260246000fd5b6000610d3a826108ed565b915060ff8203610d4d57610d4c610d00565b5b600182019050919050565b7f62616420726f6f74000000000000000000000000000000000000000000000000600082015250565b6000610d8e600883610bb1565b9150610d9982610d58565b602082019050919050565b60006020820190508181036000830152610dbd81610d81565b9050919050565b7f7370656e74000000000000000000000000000000000000000000000000000000600082015250565b6000610dfa600583610bb1565b9150610e0582610dc4565b602082019050919050565b60006020820190508181036000830152610e2981610ded565b9050919050565b82818337505050565b610e4560408383610e30565b5050565b600060029050919050565b600081905092915050565b6000819050919050565b610e7560408383610e30565b5050565b6000610e858383610e69565b60408301905092915050565b600082905092915050565b6000604082019050919050565b610eb281610e49565b610ebc8184610e54565b9250610ec782610e5f565b8060005b83811015610f0057610edd8284610e91565b610ee78782610e79565b9650610ef283610e9c565b925050600181019050610ecb565b505050505050565b600060029050919050565b600081905092915050565b6000819050919050565b610f31816109c2565b82525050565b6000610f438383610f28565b60208301905092915050565b6000602082019050919050565b610f6581610f08565b610f6f8184610f13565b9250610f7a82610f1e565b8060005b83811015610fab578151610f928782610f37565b9650610f9d83610f4f565b925050600181019050610f7e565b505050505050565b600061014082019050610fc96000830187610e39565b610fd66040830186610ea9565b610fe360c0830185610e39565b610ff1610100830184610f5c565b95945050505050565b6110038161098c565b811461100e57600080fd5b50565b60008151905061102081610ffa565b92915050565b60006020828403121561103c5761103b610924565b5b600061104a84828501611011565b91505092915050565b7f6261642070726f6f660000000000000000000000000000000000000000000000600082015250565b6000611089600983610bb1565b915061109482611053565b602082019050919050565b600060208201905081810360008301526110b88161107c565b9050919050565b600081905092915050565b50565b60006110da6000836110bf565b91506110e5826110ca565b600082019050919050565b60006110fb826110cd565b9150819050919050565b7f7472616e73666572206661696c00000000000000000000000000000000000000600082015250565b600061113b600d83610bb1565b915061114682611105565b602082019050919050565b6000602082019050818103600083015261116a8161112e565b9050919050565b6000819050919050565b600061119661119161118c84610ac2565b611171565b610ac2565b9050919050565b60006111a88261117b565b9050919050565b60006111ba8261119d565b9050919050565b6111ca816111af565b82525050565b60006040820190506111e560008301856111c1565b6111f26020830184610a4f565b9392505050565b6000611204826108ed565b915061120f836108ed565b925082820261121d816108ed565b915080821461122f5761122e610d00565b5b5092915050565b6000611241826108ed565b915061124c836108ed565b9250828201905060ff81111561126557611264610d00565b5b92915050565b600081905092915050565b61127f816109c2565b82525050565b60006112918383611276565b60208301905092915050565b6112a681610f08565b6112b0818461126b565b92506112bb82610f1e565b8060005b838110156112ec5781516112d38782611285565b96506112de83610f4f565b9250506001810190506112bf565b505050505050565b6000604082019050611309600083018461129d565b92915050565b60008151905061131e816109f6565b92915050565b60006020828403121561133a57611339610924565b5b60006113488482850161130f565b9150509291505056fea2646970667358221220621ba19994e817a8e73737a491cd706492a533b6f554649e2a90545ac52e70a264736f6c63430008130033","opcodes":"PUSH1 0x80 PUSH1 0x40 MSTORE CALLVALUE DUP1 ISZERO PUSH3 0x11 JUMPI PUSH1 0x0 DUP1 REVERT JUMPDEST POP PUSH1 0x40 MLOAD PUSH3 0x14B1 CODESIZE SUB DUP1 PUSH3 0x14B1 DUP4 CODECOPY DUP2 DUP2 ADD PUSH1 0x40 MSTORE DUP2 ADD SWAP1 PUSH3 0x37 SWAP2 SWAP1 PUSH3 0xE8 JUMP JUMPDEST DUP1 PUSH1 0x0 DUP1 PUSH2 0x100 EXP DUP2 SLOAD DUP2 PUSH20 0xFFFFFFFFFFFFFFFFFFFFFFFFFFFFFFFFFFFFFFFF MUL NOT AND SWAP1 DUP4 PUSH20 0xFFFFFFFFFFFFFFFFFFFFFFFFFFFFFFFFFFFFFFFF AND MUL OR SWAP1 SSTORE POP POP PUSH3 0x11A JUMP JUMPDEST PUSH1 0x0 DUP1 REVERT JUMPDEST PUSH1 0x0 PUSH20 0xFFFFFFFFFFFFFFFFFFFFFFFFFFFFFFFFFFFFFFFF DUP3 AND SWAP1 POP SWAP2 SWAP1 POP JUMP JUMPDEST PUSH1 0x0 PUSH3 0xB0 DUP3 PUSH3 0x83 JUMP JUMPDEST SWAP1 POP SWAP2 SWAP1 POP JUMP JUMPDEST PUSH3 0xC2 DUP2 PUSH3 0xA3 JUMP JUMPDEST DUP2 EQ PUSH3 0xCE JUMPI PUSH1 0x0 DUP1 REVERT JUMPDEST POP JUMP JUMPDEST PUSH1 0x0 DUP2 MLOAD SWAP1 POP PUSH3 0xE2 DUP2 PUSH3 0xB7 JUMP JUMPDEST SWAP3 SWAP2 POP POP JUMP JUMPDEST PUSH1 0x0 PUSH1 0x20 DUP3 DUP5 SUB SLT ISZERO PUSH3 0x101 JUMPI PUSH3 0x100 PUSH3 0x7E JUMP JUMPDEST JUMPDEST PUSH1 0x0 PUSH3 0x111 DUP5 DUP3 DUP6 ADD PUSH3 0xD1 JUMP JUMPDEST SWAP2 POP POP SWAP3 SWAP2 POP POP JUMP JUMPDEST PUSH2 0x1387 DUP1 PUSH3 0x12A PUSH1 0x0 CODECOPY PUSH1 0x0 RETURN INVALID PUSH1 0x80 PUSH1 0x40 MSTORE PUSH1 0x4 CALLDATASIZE LT PUSH2 0x74 JUMPI PUSH1 0x0 CALLDATALOAD PUSH1 0xE0 SHR DUP1 PUSH4 0xD1789176 GT PUSH2 0x4E JUMPI DUP1 PUSH4 0xD1789176 EQ PUSH2 0x104 JUMPI DUP1 PUSH4 0xD455A79D EQ PUSH2 0x12F JUMPI DUP1 PUSH4 0xE2DD3411 EQ PUSH2 0x16C JUMPI DUP1 PUSH4 0xFDAB463D EQ PUSH2 0x195 JUMPI PUSH2 0x7B JUMP JUMPDEST DUP1 PUSH4 0x6F403B5C EQ PUSH2 0x80 JUMPI DUP1 PUSH4 0x7ECF686D EQ PUSH2 0xAB JUMPI DUP1 PUSH4 0xB214FAA5 EQ PUSH2 0xE8 JUMPI PUSH2 0x7B JUMP JUMPDEST CALLDATASIZE PUSH2 0x7B JUMPI STOP JUMPDEST PUSH1 0x0 DUP1 REVERT JUMPDEST CALLVALUE DUP1 ISZERO PUSH2 0x8C JUMPI PUSH1 0x0 DUP1 REVERT JUMPDEST POP PUSH2 0x95 PUSH2 0x1C0 JUMP JUMPDEST PUSH1 0x40 MLOAD PUSH2 0xA2 SWAP2 SWAP1 PUSH2 0x909 JUMP JUMPDEST PUSH1 0x40 MLOAD DUP1 SWAP2 SUB SWAP1 RETURN JUMPDEST CALLVALUE DUP1 ISZERO PUSH2 0xB7 JUMPI PUSH1 0x0 DUP1 REVERT JUMPDEST POP PUSH2 0xD2 PUSH1 0x4 DUP1 CALLDATASIZE SUB DUP2 ADD SWAP1 PUSH2 0xCD SWAP2 SWAP1 PUSH2 0x95F JUMP JUMPDEST PUSH2 0x1D3 JUMP JUMPDEST PUSH1 0x40 MLOAD PUSH2 0xDF SWAP2 SWAP1 PUSH2 0x9A7 JUMP JUMPDEST PUSH1 0x40 MLOAD DUP1 SWAP2 SUB SWAP1 RETURN JUMPDEST PUSH2 0x102 PUSH1 0x4 DUP1 CALLDATASIZE SUB DUP2 ADD SWAP1 PUSH2 0xFD SWAP2 SWAP1 PUSH2 0x95F JUMP JUMPDEST PUSH2 0x1F3 JUMP JUMPDEST STOP JUMPDEST CALLVALUE DUP1 ISZERO PUSH2 0x110 JUMPI PUSH1 0x0 DUP1 REVERT JUMPDEST POP PUSH2 0x119 PUSH2 0x346 JUMP JUMPDEST PUSH1 0x40 MLOAD PUSH2 0x126 SWAP2 SWAP1 PUSH2 0x9DB JUMP JUMPDEST PUSH1 0x40 MLOAD DUP1 SWAP2 SUB SWAP1 RETURN JUMPDEST CALLVALUE DUP1 ISZERO PUSH2 0x13B JUMPI PUSH1 0x0 DUP1 REVERT JUMPDEST POP PUSH2 0x156 PUSH1 0x4 DUP1 CALLDATASIZE SUB DUP2 ADD SWAP1 PUSH2 0x151 SWAP2 SWAP1 PUSH2 0xA22 JUMP JUMPDEST PUSH2 0x34B JUMP JUMPDEST PUSH1 0x40 MLOAD PUSH2 0x163 SWAP2 SWAP1 PUSH2 0xA5E JUMP JUMPDEST PUSH1 0x40 MLOAD DUP1 SWAP2 SUB SWAP1 RETURN JUMPDEST CALLVALUE DUP1 ISZERO PUSH2 0x178 JUMPI PUSH1 0x0 DUP1 REVERT JUMPDEST POP PUSH2 0x193 PUSH1 0x4 DUP1 CALLDATASIZE SUB DUP2 ADD SWAP1 PUSH2 0x18E SWAP2 SWAP1 PUSH2 0xB20 JUMP JUMPDEST PUSH2 0x366 JUMP JUMPDEST STOP JUMPDEST CALLVALUE DUP1 ISZERO PUSH2 0x1A1 JUMPI PUSH1 0x0 DUP1 REVERT JUMPDEST POP PUSH2 0x1AA PUSH2 0x625 JUMP JUMPDEST PUSH1 0x40 MLOAD PUSH2 0x1B7 SWAP2 SWAP1 PUSH2 0xA5E JUMP JUMPDEST PUSH1 0x40 MLOAD DUP1 SWAP2 SUB SWAP1 RETURN JUMPDEST PUSH1 0x9 PUSH1 0x0 SWAP1 SLOAD SWAP1 PUSH2 0x100 EXP SWAP1 DIV PUSH1 0xFF AND DUP2 JUMP JUMPDEST PUSH1 0xB PUSH1 0x20 MSTORE DUP1 PUSH1 0x0 MSTORE PUSH1 0x40 PUSH1 0x0 KECCAK256 PUSH1 0x0 SWAP2 POP SLOAD SWAP1 PUSH2 0x100 EXP SWAP1 DIV PUSH1 0xFF AND DUP2 JUMP JUMPDEST PUSH1 0x1 CALLVALUE EQ PUSH2 0x236 JUMPI PUSH1 0x40 MLOAD PUSH32 0x8C379A000000000000000000000000000000000000000000000000000000000 DUP2 MSTORE PUSH1 0x4 ADD PUSH2 0x22D SWAP1 PUSH2 0xC0E JUMP JUMPDEST PUSH1 0x40 MLOAD DUP1 SWAP2 SUB SWAP1 REVERT JUMPDEST PUSH1 0x8 PUSH1 0x9 PUSH1 0x0 SWAP1 SLOAD SWAP1 PUSH2 0x100 EXP SWAP1 DIV PUSH1 0xFF AND PUSH1 0xFF AND LT PUSH2 0x28B JUMPI PUSH1 0x40 MLOAD PUSH32 0x8C379A000000000000000000000000000000000000000000000000000000000 DUP2 MSTORE PUSH1 0x4 ADD PUSH2 0x282 SWAP1 PUSH2 0xC7A JUMP JUMPDEST PUSH1 0x40 MLOAD DUP1 SWAP2 SUB SWAP1 REVERT JUMPDEST DUP1 PUSH1 0x1 PUSH1 0x9 PUSH1 0x0 SWAP1 SLOAD SWAP1 PUSH2 0x100 EXP SWAP1 DIV PUSH1 0xFF AND PUSH1 0xFF AND PUSH1 0x8 DUP2 LT PUSH2 0x2B2 JUMPI PUSH2 0x2B1 PUSH2 0xC9A JUMP JUMPDEST JUMPDEST ADD DUP2 SWAP1 SSTORE POP PUSH2 0x2BF PUSH2 0x62B JUMP JUMPDEST PUSH32 0x6960495B0377F7CE8CEA32CF5EC52E4846125AC718809FB49F2AC177C971842B DUP2 PUSH1 0x9 PUSH1 0x0 SWAP1 SLOAD SWAP1 PUSH2 0x100 EXP SWAP1 DIV PUSH1 0xFF AND PUSH1 0xA SLOAD PUSH1 0x40 MLOAD PUSH2 0x303 SWAP4 SWAP3 SWAP2 SWAP1 PUSH2 0xCC9 JUMP JUMPDEST PUSH1 0x40 MLOAD DUP1 SWAP2 SUB SWAP1 LOG1 PUSH1 0x9 PUSH1 0x0 DUP2 DUP2 SWAP1 SLOAD SWAP1 PUSH2 0x100 EXP SWAP1 DIV PUSH1 0xFF AND DUP1 SWAP3 SWAP2 SWAP1 PUSH2 0x32A SWAP1 PUSH2 0xD2F JUMP JUMPDEST SWAP2 SWAP1 PUSH2 0x100 EXP DUP2 SLOAD DUP2 PUSH1 0xFF MUL NOT AND SWAP1 DUP4 PUSH1 0xFF AND MUL OR SWAP1 SSTORE POP POP POP JUMP JUMPDEST PUSH1 0x1 DUP2 JUMP JUMPDEST PUSH1 0x1 DUP2 PUSH1 0x8 DUP2 LT PUSH2 0x35B JUMPI PUSH1 0x0 DUP1 REVERT JUMPDEST ADD PUSH1 0x0 SWAP2 POP SWAP1 POP SLOAD DUP2 JUMP JUMPDEST PUSH1 0xA SLOAD PUSH1 0x0 SHR DUP3 EQ PUSH2 0x3AD JUMPI PUSH1 0x40 MLOAD PUSH32 0x8C379A000000000000000000000000000000000000000000000000000000000 DUP2 MSTORE PUSH1 0x4 ADD PUSH2 0x3A4 SWAP1 PUSH2 0xDA4 JUMP JUMPDEST PUSH1 0x40 MLOAD DUP1 SWAP2 SUB SWAP1 REVERT JUMPDEST PUSH1 0x0 DUP4 PUSH1 0x0 SHL SWAP1 POP PUSH1 0xB PUSH1 0x0 DUP3 DUP2 MSTORE PUSH1 0x20 ADD SWAP1 DUP2 MSTORE PUSH1 0x20 ADD PUSH1 0x0 KECCAK256 PUSH1 0x0 SWAP1 SLOAD SWAP1 PUSH2 0x100 EXP SWAP1 DIV PUSH1 0xFF AND ISZERO PUSH2 0x416 JUMPI PUSH1 0x40 MLOAD PUSH32 0x8C379A000000000000000000000000000000000000000000000000000000000 DUP2 MSTORE PUSH1 0x4 ADD PUSH2 0x40D SWAP1 PUSH2 0xE10 JUMP JUMPDEST PUSH1 0x40 MLOAD DUP1 SWAP2 SUB SWAP1 REVERT JUMPDEST PUSH1 0x0 DUP1 SLOAD SWAP1 PUSH2 0x100 EXP SWAP1 DIV PUSH20 0xFFFFFFFFFFFFFFFFFFFFFFFFFFFFFFFFFFFFFFFF AND PUSH20 0xFFFFFFFFFFFFFFFFFFFFFFFFFFFFFFFFFFFFFFFF AND PUSH4 0xF5C9D69E DUP9 DUP9 DUP9 PUSH1 0x40 MLOAD DUP1 PUSH1 0x40 ADD PUSH1 0x40 MSTORE DUP1 DUP10 DUP2 MSTORE PUSH1 0x20 ADD DUP11 DUP2 MSTORE POP PUSH1 0x40 MLOAD DUP6 PUSH4 0xFFFFFFFF AND PUSH1 0xE0 SHL DUP2 MSTORE PUSH1 0x4 ADD PUSH2 0x489 SWAP5 SWAP4 SWAP3 SWAP2 SWAP1 PUSH2 0xFB3 JUMP JUMPDEST PUSH1 0x20 PUSH1 0x40 MLOAD DUP1 DUP4 SUB DUP2 DUP7 GAS STATICCALL ISZERO DUP1 ISZERO PUSH2 0x4A6 JUMPI RETURNDATASIZE PUSH1 0x0 DUP1 RETURNDATACOPY RETURNDATASIZE PUSH1 0x0 REVERT JUMPDEST POP POP POP POP PUSH1 0x40 MLOAD RETURNDATASIZE PUSH1 0x1F NOT PUSH1 0x1F DUP3 ADD AND DUP3 ADD DUP1 PUSH1 0x40 MSTORE POP DUP2 ADD SWAP1 PUSH2 0x4CA SWAP2 SWAP1 PUSH2 0x1026 JUMP JUMPDEST PUSH2 0x509 JUMPI PUSH1 0x40 MLOAD PUSH32 0x8C379A000000000000000000000000000000000000000000000000000000000 DUP2 MSTORE PUSH1 0x4 ADD PUSH2 0x500 SWAP1 PUSH2 0x109F JUMP JUMPDEST PUSH1 0x40 MLOAD DUP1 SWAP2 SUB SWAP1 REVERT JUMPDEST PUSH1 0x1 PUSH1 0xB PUSH1 0x0 DUP4 DUP2 MSTORE PUSH1 0x20 ADD SWAP1 DUP2 MSTORE PUSH1 0x20 ADD PUSH1 0x0 KECCAK256 PUSH1 0x0 PUSH2 0x100 EXP DUP2 SLOAD DUP2 PUSH1 0xFF MUL NOT AND SWAP1 DUP4 ISZERO ISZERO MUL OR SWAP1 SSTORE POP PUSH1 0x0 DUP3 PUSH20 0xFFFFFFFFFFFFFFFFFFFFFFFFFFFFFFFFFFFFFFFF AND PUSH1 0x1 PUSH1 0x40 MLOAD PUSH2 0x55C SWAP1 PUSH2 0x10F0 JUMP JUMPDEST PUSH1 0x0 PUSH1 0x40 MLOAD DUP1 DUP4 SUB DUP2 DUP6 DUP8 GAS CALL SWAP3 POP POP POP RETURNDATASIZE DUP1 PUSH1 0x0 DUP2 EQ PUSH2 0x599 JUMPI PUSH1 0x40 MLOAD SWAP2 POP PUSH1 0x1F NOT PUSH1 0x3F RETURNDATASIZE ADD AND DUP3 ADD PUSH1 0x40 MSTORE RETURNDATASIZE DUP3 MSTORE RETURNDATASIZE PUSH1 0x0 PUSH1 0x20 DUP5 ADD RETURNDATACOPY PUSH2 0x59E JUMP JUMPDEST PUSH1 0x60 SWAP2 POP JUMPDEST POP POP SWAP1 POP DUP1 PUSH2 0x5E2 JUMPI PUSH1 0x40 MLOAD PUSH32 0x8C379A000000000000000000000000000000000000000000000000000000000 DUP2 MSTORE PUSH1 0x4 ADD PUSH2 0x5D9 SWAP1 PUSH2 0x1151 JUMP JUMPDEST PUSH1 0x40 MLOAD DUP1 SWAP2 SUB SWAP1 REVERT JUMPDEST PUSH32 0x6ECBC70C26B02B821204839571EA973742FDC445DBFD00B71C513370F5D458AD DUP4 DUP4 PUSH1 0x40 MLOAD PUSH2 0x613 SWAP3 SWAP2 SWAP1 PUSH2 0x11D0 JUMP JUMPDEST PUSH1 0x40 MLOAD DUP1 SWAP2 SUB SWAP1 LOG1 POP POP POP POP POP POP POP POP JUMP JUMPDEST PUSH1 0xA SLOAD DUP2 JUMP JUMPDEST PUSH1 0x0 PUSH1 0x1 PUSH1 0x8 DUP1 PUSH1 0x20 MUL PUSH1 0x40 MLOAD SWAP1 DUP2 ADD PUSH1 0x40 MSTORE DUP1 SWAP3 SWAP2 SWAP1 DUP3 PUSH1 0x8 DUP1 ISZERO PUSH2 0x666 JUMPI PUSH1 0x20 MUL DUP3 ADD SWAP2 JUMPDEST DUP2 SLOAD DUP2 MSTORE PUSH1 0x20 ADD SWAP1 PUSH1 0x1 ADD SWAP1 DUP1 DUP4 GT PUSH2 0x652 JUMPI JUMPDEST POP POP POP POP POP SWAP1 POP PUSH2 0x675 PUSH2 0x8A9 JUMP JUMPDEST PUSH2 0x67D PUSH2 0x8CB JUMP JUMPDEST PUSH1 0x0 JUMPDEST PUSH1 0x4 DUP2 PUSH1 0xFF AND LT ISZERO PUSH2 0x720 JUMPI PUSH2 0x6EE DUP5 DUP3 PUSH1 0x2 PUSH2 0x69D SWAP2 SWAP1 PUSH2 0x11F9 JUMP JUMPDEST PUSH1 0xFF AND PUSH1 0x8 DUP2 LT PUSH2 0x6B1 JUMPI PUSH2 0x6B0 PUSH2 0xC9A JUMP JUMPDEST JUMPDEST PUSH1 0x20 MUL ADD MLOAD DUP6 PUSH1 0x1 DUP5 PUSH1 0x2 PUSH2 0x6C6 SWAP2 SWAP1 PUSH2 0x11F9 JUMP JUMPDEST PUSH2 0x6D0 SWAP2 SWAP1 PUSH2 0x1236 JUMP JUMPDEST PUSH1 0xFF AND PUSH1 0x8 DUP2 LT PUSH2 0x6E4 JUMPI PUSH2 0x6E3 PUSH2 0xC9A JUMP JUMPDEST JUMPDEST PUSH1 0x20 MUL ADD MLOAD PUSH2 0x80A JUMP JUMPDEST DUP4 DUP3 PUSH1 0xFF AND PUSH1 0x4 DUP2 LT PUSH2 0x704 JUMPI PUSH2 0x703 PUSH2 0xC9A JUMP JUMPDEST JUMPDEST PUSH1 0x20 MUL ADD DUP2 DUP2 MSTORE POP POP DUP1 DUP1 PUSH2 0x718 SWAP1 PUSH2 0xD2F JUMP JUMPDEST SWAP2 POP POP PUSH2 0x680 JUMP JUMPDEST POP PUSH1 0x0 JUMPDEST PUSH1 0x2 DUP2 PUSH1 0xFF AND LT ISZERO PUSH2 0x7C4 JUMPI PUSH2 0x792 DUP4 DUP3 PUSH1 0x2 PUSH2 0x741 SWAP2 SWAP1 PUSH2 0x11F9 JUMP JUMPDEST PUSH1 0xFF AND PUSH1 0x4 DUP2 LT PUSH2 0x755 JUMPI PUSH2 0x754 PUSH2 0xC9A JUMP JUMPDEST JUMPDEST PUSH1 0x20 MUL ADD MLOAD DUP5 PUSH1 0x1 DUP5 PUSH1 0x2 PUSH2 0x76A SWAP2 SWAP1 PUSH2 0x11F9 JUMP JUMPDEST PUSH2 0x774 SWAP2 SWAP1 PUSH2 0x1236 JUMP JUMPDEST PUSH1 0xFF AND PUSH1 0x4 DUP2 LT PUSH2 0x788 JUMPI PUSH2 0x787 PUSH2 0xC9A JUMP JUMPDEST JUMPDEST PUSH1 0x20 MUL ADD MLOAD PUSH2 0x80A JUMP JUMPDEST DUP3 DUP3 PUSH1 0xFF AND PUSH1 0x2 DUP2 LT PUSH2 0x7A8 JUMPI PUSH2 0x7A7 PUSH2 0xC9A JUMP JUMPDEST JUMPDEST PUSH1 0x20 MUL ADD DUP2 DUP2 MSTORE POP POP DUP1 DUP1 PUSH2 0x7BC SWAP1 PUSH2 0xD2F JUMP JUMPDEST SWAP2 POP POP PUSH2 0x724 JUMP JUMPDEST POP PUSH2 0x7FF DUP2 PUSH1 0x0 PUSH1 0x2 DUP2 LT PUSH2 0x7DC JUMPI PUSH2 0x7DB PUSH2 0xC9A JUMP JUMPDEST JUMPDEST PUSH1 0x20 MUL ADD MLOAD DUP3 PUSH1 0x1 PUSH1 0x2 DUP2 LT PUSH2 0x7F5 JUMPI PUSH2 0x7F4 PUSH2 0xC9A JUMP JUMPDEST JUMPDEST PUSH1 0x20 MUL ADD MLOAD PUSH2 0x80A JUMP JUMPDEST PUSH1 0xA DUP2 SWAP1 SSTORE POP POP POP POP JUMP JUMPDEST PUSH1 0x0 PUSH20 0x0 PUSH4 0x561558FE PUSH1 0x40 MLOAD DUP1 PUSH1 0x40 ADD PUSH1 0x40 MSTORE DUP1 DUP7 PUSH1 0x0 SHR DUP2 MSTORE PUSH1 0x20 ADD DUP6 PUSH1 0x0 SHR DUP2 MSTORE POP PUSH1 0x40 MLOAD DUP3 PUSH4 0xFFFFFFFF AND PUSH1 0xE0 SHL DUP2 MSTORE PUSH1 0x4 ADD PUSH2 0x85D SWAP2 SWAP1 PUSH2 0x12F4 JUMP JUMPDEST PUSH1 0x20 PUSH1 0x40 MLOAD DUP1 DUP4 SUB DUP2 DUP7 GAS DELEGATECALL ISZERO DUP1 ISZERO PUSH2 0x87A JUMPI RETURNDATASIZE PUSH1 0x0 DUP1 RETURNDATACOPY RETURNDATASIZE PUSH1 0x0 REVERT JUMPDEST POP POP POP POP PUSH1 0x40 MLOAD RETURNDATASIZE PUSH1 0x1F NOT PUSH1 0x1F DUP3 ADD AND DUP3 ADD DUP1 PUSH1 0x40 MSTORE POP DUP2 ADD SWAP1 PUSH2 0x89E SWAP2 SWAP1 PUSH2 0x1324 JUMP JUMPDEST PUSH1 0x0 SHL SWAP1 POP SWAP3 SWAP2 POP POP JUMP JUMPDEST PUSH1 0x40 MLOAD DUP1 PUSH1 0x80 ADD PUSH1 0x40 MSTORE DUP1 PUSH1 0x4 SWAP1 PUSH1 0x20 DUP3 MUL DUP1 CALLDATASIZE DUP4 CALLDATACOPY DUP1 DUP3 ADD SWAP2 POP POP SWAP1 POP POP SWAP1 JUMP JUMPDEST PUSH1 0x40 MLOAD DUP1 PUSH1 0x40 ADD PUSH1 0x40 MSTORE DUP1 PUSH1 0x2 SWAP1 PUSH1 0x20 DUP3 MUL DUP1 CALLDATASIZE DUP4 CALLDATACOPY DUP1 DUP3 ADD SWAP2 POP POP SWAP1 POP POP SWAP1 JUMP JUMPDEST PUSH1 0x0 PUSH1 0xFF DUP3 AND SWAP1 POP SWAP2 SWAP1 POP JUMP JUMPDEST PUSH2 0x903 DUP2 PUSH2 0x8ED JUMP JUMPDEST DUP3 MSTORE POP POP JUMP JUMPDEST PUSH1 0x0 PUSH1 0x20 DUP3 ADD SWAP1 POP PUSH2 0x91E PUSH1 0x0 DUP4 ADD DUP5 PUSH2 0x8FA JUMP JUMPDEST SWAP3 SWAP2 POP POP JUMP JUMPDEST PUSH1 0x0 DUP1 REVERT JUMPDEST PUSH1 0x0 DUP2 SWAP1 POP SWAP2 SWAP1 POP JUMP JUMPDEST PUSH2 0x93C DUP2 PUSH2 0x929 JUMP JUMPDEST DUP2 EQ PUSH2 0x947 JUMPI PUSH1 0x0 DUP1 REVERT JUMPDEST POP JUMP JUMPDEST PUSH1 0x0 DUP2 CALLDATALOAD SWAP1 POP PUSH2 0x959 DUP2 PUSH2 0x933 JUMP JUMPDEST SWAP3 SWAP2 POP POP JUMP JUMPDEST PUSH1 0x0 PUSH1 0x20 DUP3 DUP5 SUB SLT ISZERO PUSH2 0x975 JUMPI PUSH2 0x974 PUSH2 0x924 JUMP JUMPDEST JUMPDEST PUSH1 0x0 PUSH2 0x983 DUP5 DUP3 DUP6 ADD PUSH2 0x94A JUMP JUMPDEST SWAP2 POP POP SWAP3 SWAP2 POP POP JUMP JUMPDEST PUSH1 0x0 DUP2 ISZERO ISZERO SWAP1 POP SWAP2 SWAP1 POP JUMP JUMPDEST PUSH2 0x9A1 DUP2 PUSH2 0x98C JUMP JUMPDEST DUP3 MSTORE POP POP JUMP JUMPDEST PUSH1 0x0 PUSH1 0x20 DUP3 ADD SWAP1 POP PUSH2 0x9BC PUSH1 0x0 DUP4 ADD DUP5 PUSH2 0x998 JUMP JUMPDEST SWAP3 SWAP2 POP POP JUMP JUMPDEST PUSH1 0x0 DUP2 SWAP1 POP SWAP2 SWAP1 POP JUMP JUMPDEST PUSH2 0x9D5 DUP2 PUSH2 0x9C2 JUMP JUMPDEST DUP3 MSTORE POP POP JUMP JUMPDEST PUSH1 0x0 PUSH1 0x20 DUP3 ADD SWAP1 POP PUSH2 0x9F0 PUSH1 0x0 DUP4 ADD DUP5 PUSH2 0x9CC JUMP JUMPDEST SWAP3 SWAP2 POP POP JUMP JUMPDEST PUSH2 0x9FF DUP2 PUSH2 0x9C2 JUMP JUMPDEST DUP2 EQ PUSH2 0xA0A JUMPI PUSH1 0x0 DUP1 REVERT JUMPDEST POP JUMP JUMPDEST PUSH1 0x0 DUP2 CALLDATALOAD SWAP1 POP PUSH2 0xA1C DUP2 PUSH2 0x9F6 JUMP JUMPDEST SWAP3 SWAP2 POP POP JUMP JUMPDEST PUSH1 0x0 PUSH1 0x20 DUP3 DUP5 SUB SLT ISZERO PUSH2 0xA38 JUMPI PUSH2 0xA37 PUSH2 0x924 JUMP JUMPDEST JUMPDEST PUSH1 0x0 PUSH2 0xA46 DUP5 DUP3 DUP6 ADD PUSH2 0xA0D JUMP JUMPDEST SWAP2 POP POP SWAP3 SWAP2 POP POP JUMP JUMPDEST PUSH2 0xA58 DUP2 PUSH2 0x929 JUMP JUMPDEST DUP3 MSTORE POP POP JUMP JUMPDEST PUSH1 0x0 PUSH1 0x20 DUP3 ADD SWAP1 POP PUSH2 0xA73 PUSH1 0x0 DUP4 ADD DUP5 PUSH2 0xA4F JUMP JUMPDEST SWAP3 SWAP2 POP POP JUMP JUMPDEST PUSH1 0x0 DUP1 REVERT JUMPDEST PUSH1 0x0 DUP2 SWAP1 POP DUP3 PUSH1 0x20 PUSH1 0x2 MUL DUP3 ADD GT ISZERO PUSH2 0xA9A JUMPI PUSH2 0xA99 PUSH2 0xA79 JUMP JUMPDEST JUMPDEST SWAP3 SWAP2 POP POP JUMP JUMPDEST PUSH1 0x0 DUP2 SWAP1 POP DUP3 PUSH1 0x40 PUSH1 0x2 MUL DUP3 ADD GT ISZERO PUSH2 0xABC JUMPI PUSH2 0xABB PUSH2 0xA79 JUMP JUMPDEST JUMPDEST SWAP3 SWAP2 POP POP JUMP JUMPDEST PUSH1 0x0 PUSH20 0xFFFFFFFFFFFFFFFFFFFFFFFFFFFFFFFFFFFFFFFF DUP3 AND SWAP1 POP SWAP2 SWAP1 POP JUMP JUMPDEST PUSH1 0x0 PUSH2 0xAED DUP3 PUSH2 0xAC2 JUMP JUMPDEST SWAP1 POP SWAP2 SWAP1 POP JUMP JUMPDEST PUSH2 0xAFD DUP2 PUSH2 0xAE2 JUMP JUMPDEST DUP2 EQ PUSH2 0xB08 JUMPI PUSH1 0x0 DUP1 REVERT JUMPDEST POP JUMP JUMPDEST PUSH1 0x0 DUP2 CALLDATALOAD SWAP1 POP PUSH2 0xB1A DUP2 PUSH2 0xAF4 JUMP JUMPDEST SWAP3 SWAP2 POP POP JUMP JUMPDEST PUSH1 0x0 DUP1 PUSH1 0x0 DUP1 PUSH1 0x0 DUP1 PUSH2 0x160 DUP8 DUP10 SUB SLT ISZERO PUSH2 0xB3E JUMPI PUSH2 0xB3D PUSH2 0x924 JUMP JUMPDEST JUMPDEST PUSH1 0x0 PUSH2 0xB4C DUP10 DUP3 DUP11 ADD PUSH2 0xA7E JUMP JUMPDEST SWAP7 POP POP PUSH1 0x40 PUSH2 0xB5D DUP10 DUP3 DUP11 ADD PUSH2 0xAA0 JUMP JUMPDEST SWAP6 POP POP PUSH1 0xC0 PUSH2 0xB6E DUP10 DUP3 DUP11 ADD PUSH2 0xA7E JUMP JUMPDEST SWAP5 POP POP PUSH2 0x100 PUSH2 0xB80 DUP10 DUP3 DUP11 ADD PUSH2 0xA0D JUMP JUMPDEST SWAP4 POP POP PUSH2 0x120 PUSH2 0xB92 DUP10 DUP3 DUP11 ADD PUSH2 0xA0D JUMP JUMPDEST SWAP3 POP POP PUSH2 0x140 PUSH2 0xBA4 DUP10 DUP3 DUP11 ADD PUSH2 0xB0B JUMP JUMPDEST SWAP2 POP POP SWAP3 SWAP6 POP SWAP3 SWAP6 POP SWAP3 SWAP6 JUMP JUMPDEST PUSH1 0x0 DUP3 DUP3 MSTORE PUSH1 0x20 DUP3 ADD SWAP1 POP SWAP3 SWAP2 POP POP JUMP JUMPDEST PUSH32 0x6E65656420312077656900000000000000000000000000000000000000000000 PUSH1 0x0 DUP3 ADD MSTORE POP JUMP JUMPDEST PUSH1 0x0 PUSH2 0xBF8 PUSH1 0xA DUP4 PUSH2 0xBB1 JUMP JUMPDEST SWAP2 POP PUSH2 0xC03 DUP3 PUSH2 0xBC2 JUMP JUMPDEST PUSH1 0x20 DUP3 ADD SWAP1 POP SWAP2 SWAP1 POP JUMP JUMPDEST PUSH1 0x0 PUSH1 0x20 DUP3 ADD SWAP1 POP DUP2 DUP2 SUB PUSH1 0x0 DUP4 ADD MSTORE PUSH2 0xC27 DUP2 PUSH2 0xBEB JUMP JUMPDEST SWAP1 POP SWAP2 SWAP1 POP JUMP JUMPDEST PUSH32 0x747265652066756C6C0000000000000000000000000000000000000000000000 PUSH1 0x0 DUP3 ADD MSTORE POP JUMP JUMPDEST PUSH1 0x0 PUSH2 0xC64 PUSH1 0x9 DUP4 PUSH2 0xBB1 JUMP JUMPDEST SWAP2 POP PUSH2 0xC6F DUP3 PUSH2 0xC2E JUMP JUMPDEST PUSH1 0x20 DUP3 ADD SWAP1 POP SWAP2 SWAP1 POP JUMP JUMPDEST PUSH1 0x0 PUSH1 0x20 DUP3 ADD SWAP1 POP DUP2 DUP2 SUB PUSH1 0x0 DUP4 ADD MSTORE PUSH2 0xC93 DUP2 PUSH2 0xC57 JUMP JUMPDEST SWAP1 POP SWAP2 SWAP1 POP JUMP JUMPDEST PUSH32 0x4E487B7100000000000000000000000000000000000000000000000000000000 PUSH1 0x0 MSTORE PUSH1 0x32 PUSH1 0x4 MSTORE PUSH1 0x24 PUSH1 0x0 REVERT JUMPDEST PUSH1 0x0 PUSH1 0x60 DUP3 ADD SWAP1 POP PUSH2 0xCDE PUSH1 0x0 DUP4 ADD DUP7 PUSH2 0xA4F JUMP JUMPDEST PUSH2 0xCEB PUSH1 0x20 DUP4 ADD DUP6 PUSH2 0x8FA JUMP JUMPDEST PUSH2 0xCF8 PUSH1 0x40 DUP4 ADD DUP5 PUSH2 0xA4F JUMP JUMPDEST SWAP5 SWAP4 POP POP POP POP JUMP JUMPDEST PUSH32 0x4E487B7100000000000000000000000000000000000000000000000000000000 PUSH1 0x0 MSTORE PUSH1 0x11 PUSH1 0x4 MSTORE PUSH1 0x24 PUSH1 0x0 REVERT JUMPDEST PUSH1 0x0 PUSH2 0xD3A DUP3 PUSH2 0x8ED JUMP JUMPDEST SWAP2 POP PUSH1 0xFF DUP3 SUB PUSH2 0xD4D JUMPI PUSH2 0xD4C PUSH2 0xD00 JUMP JUMPDEST JUMPDEST PUSH1 0x1 DUP3 ADD SWAP1 POP SWAP2 SWAP1 POP JUMP JUMPDEST PUSH32 0x62616420726F6F74000000000000000000000000000000000000000000000000 PUSH1 0x0 DUP3 ADD MSTORE POP JUMP JUMPDEST PUSH1 0x0 PUSH2 0xD8E PUSH1 0x8 DUP4 PUSH2 0xBB1 JUMP JUMPDEST SWAP2 POP PUSH2 0xD99 DUP3 PUSH2 0xD58 JUMP JUMPDEST PUSH1 0x20 DUP3 ADD SWAP1 POP SWAP2 SWAP1 POP JUMP JUMPDEST PUSH1 0x0 PUSH1 0x20 DUP3 ADD SWAP1 POP DUP2 DUP2 SUB PUSH1 0x0 DUP4 ADD MSTORE PUSH2 0xDBD DUP2 PUSH2 0xD81 JUMP JUMPDEST SWAP1 POP SWAP2 SWAP1 POP JUMP JUMPDEST PUSH32 0x7370656E74000000000000000000000000000000000000000000000000000000 PUSH1 0x0 DUP3 ADD MSTORE POP JUMP JUMPDEST PUSH1 0x0 PUSH2 0xDFA PUSH1 0x5 DUP4 PUSH2 0xBB1 JUMP JUMPDEST SWAP2 POP PUSH2 0xE05 DUP3 PUSH2 0xDC4 JUMP JUMPDEST PUSH1 0x20 DUP3 ADD SWAP1 POP SWAP2 SWAP1 POP JUMP JUMPDEST PUSH1 0x0 PUSH1 0x20 DUP3 ADD SWAP1 POP DUP2 DUP2 SUB PUSH1 0x0 DUP4 ADD MSTORE PUSH2 0xE29 DUP2 PUSH2 0xDED JUMP JUMPDEST SWAP1 POP SWAP2 SWAP1 POP JUMP JUMPDEST DUP3 DUP2 DUP4 CALLDATACOPY POP POP POP JUMP JUMPDEST PUSH2 0xE45 PUSH1 0x40 DUP4 DUP4 PUSH2 0xE30 JUMP JUMPDEST POP POP JUMP JUMPDEST PUSH1 0x0 PUSH1 0x2 SWAP1 POP SWAP2 SWAP1 POP JUMP JUMPDEST PUSH1 0x0 DUP2 SWAP1 POP SWAP3 SWAP2 POP POP JUMP JUMPDEST PUSH1 0x0 DUP2 SWAP1 POP SWAP2 SWAP1 POP JUMP JUMPDEST PUSH2 0xE75 PUSH1 0x40 DUP4 DUP4 PUSH2 0xE30 JUMP JUMPDEST POP POP JUMP JUMPDEST PUSH1 0x0 PUSH2 0xE85 DUP4 DUP4 PUSH2 0xE69 JUMP JUMPDEST PUSH1 0x40 DUP4 ADD SWAP1 POP SWAP3 SWAP2 POP POP JUMP JUMPDEST PUSH1 0x0 DUP3 SWAP1 POP SWAP3 SWAP2 POP POP JUMP JUMPDEST PUSH1 0x0 PUSH1 0x40 DUP3 ADD SWAP1 POP SWAP2 SWAP1 POP JUMP JUMPDEST PUSH2 0xEB2 DUP2 PUSH2 0xE49 JUMP JUMPDEST PUSH2 0xEBC DUP2 DUP5 PUSH2 0xE54 JUMP JUMPDEST SWAP3 POP PUSH2 0xEC7 DUP3 PUSH2 0xE5F JUMP JUMPDEST DUP1 PUSH1 0x0 JUMPDEST DUP4 DUP2 LT ISZERO PUSH2 0xF00 JUMPI PUSH2 0xEDD DUP3 DUP5 PUSH2 0xE91 JUMP JUMPDEST PUSH2 0xEE7 DUP8 DUP3 PUSH2 0xE79 JUMP JUMPDEST SWAP7 POP PUSH2 0xEF2 DUP4 PUSH2 0xE9C JUMP JUMPDEST SWAP3 POP POP PUSH1 0x1 DUP2 ADD SWAP1 POP PUSH2 0xECB JUMP JUMPDEST POP POP POP POP POP POP JUMP JUMPDEST PUSH1 0x0 PUSH1 0x2 SWAP1 POP SWAP2 SWAP1 POP JUMP JUMPDEST PUSH1 0x0 DUP2 SWAP1 POP SWAP3 SWAP2 POP POP JUMP JUMPDEST PUSH1 0x0 DUP2 SWAP1 POP SWAP2 SWAP1 POP JUMP JUMPDEST PUSH2 0xF31 DUP2 PUSH2 0x9C2 JUMP JUMPDEST DUP3 MSTORE POP POP JUMP JUMPDEST PUSH1 0x0 PUSH2 0xF43 DUP4 DUP4 PUSH2 0xF28 JUMP JUMPDEST PUSH1 0x20 DUP4 ADD SWAP1 POP SWAP3 SWAP2 POP POP JUMP JUMPDEST PUSH1 0x0 PUSH1 0x20 DUP3 ADD SWAP1 POP SWAP2 SWAP1 POP JUMP JUMPDEST PUSH2 0xF65 DUP2 PUSH2 0xF08 JUMP JUMPDEST PUSH2 0xF6F DUP2 DUP5 PUSH2 0xF13 JUMP JUMPDEST SWAP3 POP PUSH2 0xF7A DUP3 PUSH2 0xF1E JUMP JUMPDEST DUP1 PUSH1 0x0 JUMPDEST DUP4 DUP2 LT ISZERO PUSH2 0xFAB JUMPI DUP2 MLOAD PUSH2 0xF92 DUP8 DUP3 PUSH2 0xF37 JUMP JUMPDEST SWAP7 POP PUSH2 0xF9D DUP4 PUSH2 0xF4F JUMP JUMPDEST SWAP3 POP POP PUSH1 0x1 DUP2 ADD SWAP1 POP PUSH2 0xF7E JUMP JUMPDEST POP POP POP POP POP POP JUMP JUMPDEST PUSH1 0x0 PUSH2 0x140 DUP3 ADD SWAP1 POP PUSH2 0xFC9 PUSH1 0x0 DUP4 ADD DUP8 PUSH2 0xE39 JUMP JUMPDEST PUSH2 0xFD6 PUSH1 0x40 DUP4 ADD DUP7 PUSH2 0xEA9 JUMP JUMPDEST PUSH2 0xFE3 PUSH1 0xC0 DUP4 ADD DUP6 PUSH2 0xE39 JUMP JUMPDEST PUSH2 0xFF1 PUSH2 0x100 DUP4 ADD DUP5 PUSH2 0xF5C JUMP JUMPDEST SWAP6 SWAP5 POP POP POP POP POP JUMP JUMPDEST PUSH2 0x1003 DUP2 PUSH2 0x98C JUMP JUMPDEST DUP2 EQ PUSH2 0x100E JUMPI PUSH1 0x0 DUP1 REVERT JUMPDEST POP JUMP JUMPDEST PUSH1 0x0 DUP2 MLOAD SWAP1 POP PUSH2 0x1020 DUP2 PUSH2 0xFFA JUMP JUMPDEST SWAP3 SWAP2 POP POP JUMP JUMPDEST PUSH1 0x0 PUSH1 0x20 DUP3 DUP5 SUB SLT ISZERO PUSH2 0x103C JUMPI PUSH2 0x103B PUSH2 0x924 JUMP JUMPDEST JUMPDEST PUSH1 0x0 PUSH2 0x104A DUP5 DUP3 DUP6 ADD PUSH2 0x1011 JUMP JUMPDEST SWAP2 POP POP SWAP3 SWAP2 POP POP JUMP JUMPDEST PUSH32 0x6261642070726F6F660000000000000000000000000000000000000000000000 PUSH1 0x0 DUP3 ADD MSTORE POP JUMP JUMPDEST PUSH1 0x0 PUSH2 0x1089 PUSH1 0x9 DUP4 PUSH2 0xBB1 JUMP JUMPDEST SWAP2 POP PUSH2 0x1094 DUP3 PUSH2 0x1053 JUMP JUMPDEST PUSH1 0x20 DUP3 ADD SWAP1 POP SWAP2 SWAP1 POP JUMP JUMPDEST PUSH1 0x0 PUSH1 0x20 DUP3 ADD SWAP1 POP DUP2 DUP2 SUB PUSH1 0x0 DUP4 ADD MSTORE PUSH2 0x10B8 DUP2 PUSH2 0x107C JUMP JUMPDEST SWAP1 POP SWAP2 SWAP1 POP JUMP JUMPDEST PUSH1 0x0 DUP2 SWAP1 POP SWAP3 SWAP2 POP POP JUMP JUMPDEST POP JUMP JUMPDEST PUSH1 0x0 PUSH2 0x10DA PUSH1 0x0 DUP4 PUSH2 0x10BF JUMP JUMPDEST SWAP2 POP PUSH2 0x10E5 DUP3 PUSH2 0x10CA JUMP JUMPDEST PUSH1 0x0 DUP3 ADD SWAP1 POP SWAP2 SWAP1 POP JUMP JUMPDEST PUSH1 0x0 PUSH2 0x10FB DUP3 PUSH2 0x10CD JUMP JUMPDEST SWAP2 POP DUP2 SWAP1 POP SWAP2 SWAP1 POP JUMP JUMPDEST PUSH32 0x7472616E73666572206661696C00000000000000000000000000000000000000 PUSH1 0x0 DUP3 ADD MSTORE POP JUMP JUMPDEST PUSH1 0x0 PUSH2 0x113B PUSH1 0xD DUP4 PUSH2 0xBB1 JUMP JUMPDEST SWAP2 POP PUSH2 0x1146 DUP3 PUSH2 0x1105 JUMP JUMPDEST PUSH1 0x20 DUP3 ADD SWAP1 POP SWAP2 SWAP1 POP JUMP JUMPDEST PUSH1 0x0 PUSH1 0x20 DUP3 ADD SWAP1 POP DUP2 DUP2 SUB PUSH1 0x0 DUP4 ADD MSTORE PUSH2 0x116A DUP2 PUSH2 0x112E JUMP JUMPDEST SWAP1 POP SWAP2 SWAP1 POP JUMP JUMPDEST PUSH1 0x0 DUP2 SWAP1 POP SWAP2 SWAP1 POP JUMP JUMPDEST PUSH1 0x0 PUSH2 0x1196 PUSH2 0x1191 PUSH2 0x118C DUP5 PUSH2 0xAC2 JUMP JUMPDEST PUSH2 0x1171 JUMP JUMPDEST PUSH2 0xAC2 JUMP JUMPDEST SWAP1 POP SWAP2 SWAP1 POP JUMP JUMPDEST PUSH1 0x0 PUSH2 0x11A8 DUP3 PUSH2 0x117B JUMP JUMPDEST SWAP1 POP SWAP2 SWAP1 POP JUMP JUMPDEST PUSH1 0x0 PUSH2 0x11BA DUP3 PUSH2 0x119D JUMP JUMPDEST SWAP1 POP SWAP2 SWAP1 POP JUMP JUMPDEST PUSH2 0x11CA DUP2 PUSH2 0x11AF JUMP JUMPDEST DUP3 MSTORE POP POP JUMP JUMPDEST PUSH1 0x0 PUSH1 0x40 DUP3 ADD SWAP1 POP PUSH2 0x11E5 PUSH1 0x0 DUP4 ADD DUP6 PUSH2 0x11C1 JUMP JUMPDEST PUSH2 0x11F2 PUSH1 0x20 DUP4 ADD DUP5 PUSH2 0xA4F JUMP JUMPDEST SWAP4 SWAP3 POP POP POP JUMP JUMPDEST PUSH1 0x0 PUSH2 0x1204 DUP3 PUSH2 0x8ED JUMP JUMPDEST SWAP2 POP PUSH2 0x120F DUP4 PUSH2 0x8ED JUMP JUMPDEST SWAP3 POP DUP3 DUP3 MUL PUSH2 0x121D DUP2 PUSH2 0x8ED JUMP JUMPDEST SWAP2 POP DUP1 DUP3 EQ PUSH2 0x122F JUMPI PUSH2 0x122E PUSH2 0xD00 JUMP JUMPDEST JUMPDEST POP SWAP3 SWAP2 POP POP JUMP JUMPDEST PUSH1 0x0 PUSH2 0x1241 DUP3 PUSH2 0x8ED JUMP JUMPDEST SWAP2 POP PUSH2 0x124C DUP4 PUSH2 0x8ED JUMP JUMPDEST SWAP3 POP DUP3 DUP3 ADD SWAP1 POP PUSH1 0xFF DUP2 GT ISZERO PUSH2 0x1265 JUMPI PUSH2 0x1264 PUSH2 0xD00 JUMP JUMPDEST JUMPDEST SWAP3 SWAP2 POP POP JUMP JUMPDEST PUSH1 0x0 DUP2 SWAP1 POP SWAP3 SWAP2 POP POP JUMP JUMPDEST PUSH2 0x127F DUP2 PUSH2 0x9C2 JUMP JUMPDEST DUP3 MSTORE POP POP JUMP JUMPDEST PUSH1 0x0 PUSH2 0x1291 DUP4 DUP4 PUSH2 0x1276 JUMP JUMPDEST PUSH1 0x20 DUP4 ADD SWAP1 POP SWAP3 SWAP2 POP POP JUMP JUMPDEST PUSH2 0x12A6 DUP2 PUSH2 0xF08 JUMP JUMPDEST PUSH2 0x12B0 DUP2 DUP5 PUSH2 0x126B JUMP JUMPDEST SWAP3 POP PUSH2 0x12BB DUP3 PUSH2 0xF1E JUMP JUMPDEST DUP1 PUSH1 0x0 JUMPDEST DUP4 DUP2 LT ISZERO PUSH2 0x12EC JUMPI DUP2 MLOAD PUSH2 0x12D3 DUP8 DUP3 PUSH2 0x1285 JUMP JUMPDEST SWAP7 POP PUSH2 0x12DE DUP4 PUSH2 0xF4F JUMP JUMPDEST SWAP3 POP POP PUSH1 0x1 DUP2 ADD SWAP1 POP PUSH2 0x12BF JUMP JUMPDEST POP POP POP POP POP POP JUMP JUMPDEST PUSH1 0x0 PUSH1 0x40 DUP3 ADD SWAP1 POP PUSH2 0x1309 PUSH1 0x0 DUP4 ADD DUP5 PUSH2 0x129D JUMP JUMPDEST SWAP3 SWAP2 POP POP JUMP JUMPDEST PUSH1 0x0 DUP2 MLOAD SWAP1 POP PUSH2 0x131E DUP2 PUSH2 0x9F6 JUMP JUMPDEST SWAP3 SWAP2 POP POP JUMP JUMPDEST PUSH1 0x0 PUSH1 0x20 DUP3 DUP5 SUB SLT ISZERO PUSH2 0x133A JUMPI PUSH2 0x1339 PUSH2 0x924 JUMP JUMPDEST JUMPDEST PUSH1 0x0 PUSH2 0x1348 DUP5 DUP3 DUP6 ADD PUSH2 0x130F JUMP JUMPDEST SWAP2 POP POP SWAP3 SWAP2 POP POP JUMP INVALID LOG2 PUSH5 0x6970667358 0x22 SLT KECCAK256 PUSH3 0x1BA199 SWAP5 0xE8 OR 0xA8 0xE7 CALLDATACOPY CALLDATACOPY LOG4 SWAP2 0xCD PUSH17 0x6492A533B6F554649E2A90545AC52E70A2 PUSH5 0x736F6C6343 STOP ADDMOD SGT STOP CALLER "},"methodIdentifiers":{"AMOUNT()":"d1789176","currentRoot()":"fdab463d","deposit(bytes32)":"b214faa5","leaves(uint256)":"d455a79d","nextIdx()":"6f403b5c","nullifierUsed(bytes32)":"7ecf686d","withdraw(uint256[2],uint256[2][2],uint256[2],uint256,uint256,address)":"e2dd3411"}}}}}