{
  "_format": "hh-sol-artifact-1",
  "contractName": "VaultCodeETH",
  "sourceName": "contracts/VaultCodeETH.sol",
  "abi": [
    {
      "anonymous": false,
      "inputs": [
        {
          "indexed": true,
          "internalType": "address",
          "name": "to",
          "type": "address"
        },
        {
          "indexed": false,
          "internalType": "uint16",
          "name": "code",
          "type": "uint16"
        }
      ],
      "name": "CodeClaimed",
      "type": "event"
    },
    {
      "anonymous": false,
      "inputs": [
        {
          "indexed": true,
          "internalType": "address",
          "name": "from",
          "type": "address"
        },
        {
          "indexed": false,
          "internalType": "uint16",
          "name": "code",
          "type": "uint16"
        }
      ],
      "name": "CodeCreated",
      "type": "event"
    },
    {
      "inputs": [
        {
          "internalType": "uint16",
          "name": "",
          "type": "uint16"
        }
      ],
      "name": "codeOwner",
      "outputs": [
        {
          "internalType": "address",
          "name": "",
          "type": "address"
        }
      ],
      "stateMutability": "view",
      "type": "function"
    },
    {
      "inputs": [
        {
          "internalType": "uint16",
          "name": "",
          "type": "uint16"
        }
      ],
      "name": "codeUsed",
      "outputs": [
        {
          "internalType": "bool",
          "name": "",
          "type": "bool"
        }
      ],
      "stateMutability": "view",
      "type": "function"
    },
    {
      "inputs": [],
      "name": "deposit",
      "outputs": [],
      "stateMutability": "payable",
      "type": "function"
    },
    {
      "inputs": [
        {
          "internalType": "uint16",
          "name": "code",
          "type": "uint16"
        }
      ],
      "name": "withdraw",
      "outputs": [],
      "stateMutability": "nonpayable",
      "type": "function"
    },
    {
      "stateMutability": "payable",
      "type": "receive"
    }
  ],
  "bytecode": "0x608060405234801561001057600080fd5b50610931806100206000396000f3fe6080604052600436106100435760003560e01c80633d9728391461004f5780639289d0c114610078578063b126bcd3146100b5578063d0e30db0146100f25761004a565b3661004a57005b600080fd5b34801561005b57600080fd5b5061007660048036038101906100719190610541565b6100fc565b005b34801561008457600080fd5b5061009f600480360381019061009a9190610541565b6102da565b6040516100ac9190610589565b60405180910390f35b3480156100c157600080fd5b506100dc60048036038101906100d79190610541565b6102fa565b6040516100e991906105e5565b60405180910390f35b6100fa61032d565b005b600073ffffffffffffffffffffffffffffffffffffffff166000808361ffff1661ffff16815260200190815260200160002060009054906101000a900473ffffffffffffffffffffffffffffffffffffffff1673ffffffffffffffffffffffffffffffffffffffff16036101a5576040517f08c379a000000000000000000000000000000000000000000000000000000000815260040161019c9061065d565b60405180910390fd5b600160008261ffff1661ffff16815260200190815260200160002060009054906101000a900460ff161561020e576040517f08c379a0000000000000000000000000000000000000000000000000000000008152600401610205906106c9565b60405180910390fd5b60018060008361ffff1661ffff16815260200190815260200160002060006101000a81548160ff0219169083151502179055503373ffffffffffffffffffffffffffffffffffffffff166108fc60019081150290604051600060405180830381858888f19350505050158015610288573d6000803e3d6000fd5b503373ffffffffffffffffffffffffffffffffffffffff167f72d0020af4c321724d16dec666042f6d564a2ee223698ba2e09b53452e0e96dd826040516102cf91906106f8565b60405180910390a250565b60016020528060005260406000206000915054906101000a900460ff1681565b60006020528060005260406000206000915054906101000a900473ffffffffffffffffffffffffffffffffffffffff1681565b60013414610370576040517f08c379a00000000000000000000000000000000000000000000000000000000081526004016103679061075f565b60405180910390fd5b600061271042334360405160200161038a939291906107f2565b6040516020818303038152906040528051906020012060001c6103ad919061085e565b9050600073ffffffffffffffffffffffffffffffffffffffff166000808361ffff1661ffff16815260200190815260200160002060009054906101000a900473ffffffffffffffffffffffffffffffffffffffff1673ffffffffffffffffffffffffffffffffffffffff1614610458576040517f08c379a000000000000000000000000000000000000000000000000000000000815260040161044f906108db565b60405180910390fd5b336000808361ffff1661ffff16815260200190815260200160002060006101000a81548173ffffffffffffffffffffffffffffffffffffffff021916908373ffffffffffffffffffffffffffffffffffffffff1602179055503373ffffffffffffffffffffffffffffffffffffffff167f347f0f44fc933a57d53feea656c607e4925d15eab2f98eb0337528dea2975085826040516104f791906106f8565b60405180910390a250565b600080fd5b600061ffff82169050919050565b61051e81610507565b811461052957600080fd5b50565b60008135905061053b81610515565b92915050565b60006020828403121561055757610556610502565b5b60006105658482850161052c565b91505092915050565b60008115159050919050565b6105838161056e565b82525050565b600060208201905061059e600083018461057a565b92915050565b600073ffffffffffffffffffffffffffffffffffffffff82169050919050565b60006105cf826105a4565b9050919050565b6105df816105c4565b82525050565b60006020820190506105fa60008301846105d6565b92915050565b600082825260208201905092915050565b7f496e76616c696420636f64650000000000000000000000000000000000000000600082015250565b6000610647600c83610600565b915061065282610611565b602082019050919050565b600060208201905081810360008301526106768161063a565b9050919050565b7f436f646520616c72656164792075736564000000000000000000000000000000600082015250565b60006106b3601183610600565b91506106be8261067d565b602082019050919050565b600060208201905081810360008301526106e2816106a6565b9050919050565b6106f281610507565b82525050565b600060208201905061070d60008301846106e9565b92915050565b7f4d7573742073656e642065786163746c79203120776569000000000000000000600082015250565b6000610749601783610600565b915061075482610713565b602082019050919050565b600060208201905081810360008301526107788161073c565b9050919050565b6000819050919050565b6000819050919050565b6107a461079f8261077f565b610789565b82525050565b60008160601b9050919050565b60006107c2826107aa565b9050919050565b60006107d4826107b7565b9050919050565b6107ec6107e7826105c4565b6107c9565b82525050565b60006107fe8286610793565b60208201915061080e82856107db565b60148201915061081e8284610793565b602082019150819050949350505050565b7f4e487b7100000000000000000000000000000000000000000000000000000000600052601260045260246000fd5b60006108698261077f565b91506108748361077f565b9250826108845761088361082f565b5b828206905092915050565b7f436f646520636f6c6c6973696f6e2c2074727920616761696e00000000000000600082015250565b60006108c5601983610600565b91506108d08261088f565b602082019050919050565b600060208201905081810360008301526108f4816108b8565b905091905056fea2646970667358221220c522d67be7321be88cec98ce9f1149cf437585cef6c57a2626bb5c38f9ec7d5d64736f6c63430008130033",
  "linkReferences": {},
  "deployedLinkReferences": {}
}