{
  "_format": "hh-sol-artifact-1",
  "contractName": "VaultCodeETHTrue",
  "sourceName": "contracts/VaultCodeETHTrue.sol",
  "abi": [
    {
      "anonymous": false,
      "inputs": [
        {
          "indexed": true,
          "internalType": "address",
          "name": "to",
          "type": "address"
        },
        {
          "indexed": false,
          "internalType": "uint16",
          "name": "code",
          "type": "uint16"
        }
      ],
      "name": "CodeClaimed",
      "type": "event"
    },
    {
      "anonymous": false,
      "inputs": [
        {
          "indexed": true,
          "internalType": "address",
          "name": "from",
          "type": "address"
        },
        {
          "indexed": false,
          "internalType": "uint16",
          "name": "code",
          "type": "uint16"
        }
      ],
      "name": "CodeCreated",
      "type": "event"
    },
    {
      "anonymous": false,
      "inputs": [
        {
          "indexed": false,
          "internalType": "string",
          "name": "label",
          "type": "string"
        },
        {
          "indexed": false,
          "internalType": "uint256",
          "name": "value",
          "type": "uint256"
        }
      ],
      "name": "Debug",
      "type": "event"
    },
    {
      "inputs": [
        {
          "internalType": "uint16",
          "name": "",
          "type": "uint16"
        }
      ],
      "name": "codeOwner",
      "outputs": [
        {
          "internalType": "address",
          "name": "",
          "type": "address"
        }
      ],
      "stateMutability": "view",
      "type": "function"
    },
    {
      "inputs": [
        {
          "internalType": "uint16",
          "name": "",
          "type": "uint16"
        }
      ],
      "name": "codeUsed",
      "outputs": [
        {
          "internalType": "bool",
          "name": "",
          "type": "bool"
        }
      ],
      "stateMutability": "view",
      "type": "function"
    },
    {
      "inputs": [
        {
          "internalType": "uint16",
          "name": "code",
          "type": "uint16"
        }
      ],
      "name": "deposit",
      "outputs": [],
      "stateMutability": "payable",
      "type": "function"
    },
    {
      "inputs": [
        {
          "internalType": "uint16",
          "name": "code",
          "type": "uint16"
        }
      ],
      "name": "withdraw",
      "outputs": [],
      "stateMutability": "nonpayable",
      "type": "function"
    },
    {
      "stateMutability": "payable",
      "type": "receive"
    }
  ],
  "bytecode": "0x608060405234801561001057600080fd5b50610907806100206000396000f3fe6080604052600436106100435760003560e01c80633d9728391461004f5780639289d0c114610078578063b126bcd3146100b5578063c9c0c77a146100f25761004a565b3661004a57005b600080fd5b34801561005b57600080fd5b5061007660048036038101906100719190610594565b61010e565b005b34801561008457600080fd5b5061009f600480360381019061009a9190610594565b6102ec565b6040516100ac91906105dc565b60405180910390f35b3480156100c157600080fd5b506100dc60048036038101906100d79190610594565b61030c565b6040516100e99190610638565b60405180910390f35b61010c60048036038101906101079190610594565b61033f565b005b600073ffffffffffffffffffffffffffffffffffffffff166000808361ffff1661ffff16815260200190815260200160002060009054906101000a900473ffffffffffffffffffffffffffffffffffffffff1673ffffffffffffffffffffffffffffffffffffffff16036101b7576040517f08c379a00000000000000000000000000000000000000000000000000000000081526004016101ae906106b0565b60405180910390fd5b600160008261ffff1661ffff16815260200190815260200160002060009054906101000a900460ff1615610220576040517f08c379a00000000000000000000000000000000000000000000000000000000081526004016102179061071c565b60405180910390fd5b60018060008361ffff1661ffff16815260200190815260200160002060006101000a81548160ff0219169083151502179055503373ffffffffffffffffffffffffffffffffffffffff166108fc60019081150290604051600060405180830381858888f1935050505015801561029a573d6000803e3d6000fd5b503373ffffffffffffffffffffffffffffffffffffffff167f72d0020af4c321724d16dec666042f6d564a2ee223698ba2e09b53452e0e96dd826040516102e1919061074b565b60405180910390a250565b60016020528060005260406000206000915054906101000a900460ff1681565b60006020528060005260406000206000915054906101000a900473ffffffffffffffffffffffffffffffffffffffff1681565b7f3c5ad147104e56be34a9176a6692f7df8d2f4b29a5af06bc6b98970d329d65773460405161036e91906107cb565b60405180910390a160013410156103ba576040517f08c379a00000000000000000000000000000000000000000000000000000000081526004016103b190610845565b60405180910390fd5b6127108161ffff1610610402576040517f08c379a00000000000000000000000000000000000000000000000000000000081526004016103f9906108b1565b60405180910390fd5b600073ffffffffffffffffffffffffffffffffffffffff166000808361ffff1661ffff16815260200190815260200160002060009054906101000a900473ffffffffffffffffffffffffffffffffffffffff1673ffffffffffffffffffffffffffffffffffffffff16146104ab576040517f08c379a00000000000000000000000000000000000000000000000000000000081526004016104a29061071c565b60405180910390fd5b336000808361ffff1661ffff16815260200190815260200160002060006101000a81548173ffffffffffffffffffffffffffffffffffffffff021916908373ffffffffffffffffffffffffffffffffffffffff1602179055503373ffffffffffffffffffffffffffffffffffffffff167f347f0f44fc933a57d53feea656c607e4925d15eab2f98eb0337528dea29750858260405161054a919061074b565b60405180910390a250565b600080fd5b600061ffff82169050919050565b6105718161055a565b811461057c57600080fd5b50565b60008135905061058e81610568565b92915050565b6000602082840312156105aa576105a9610555565b5b60006105b88482850161057f565b91505092915050565b60008115159050919050565b6105d6816105c1565b82525050565b60006020820190506105f160008301846105cd565b92915050565b600073ffffffffffffffffffffffffffffffffffffffff82169050919050565b6000610622826105f7565b9050919050565b61063281610617565b82525050565b600060208201905061064d6000830184610629565b92915050565b600082825260208201905092915050565b7f496e76616c696420636f64650000000000000000000000000000000000000000600082015250565b600061069a600c83610653565b91506106a582610664565b602082019050919050565b600060208201905081810360008301526106c98161068d565b9050919050565b7f436f646520616c72656164792075736564000000000000000000000000000000600082015250565b6000610706601183610653565b9150610711826106d0565b602082019050919050565b60006020820190508181036000830152610735816106f9565b9050919050565b6107458161055a565b82525050565b6000602082019050610760600083018461073c565b92915050565b7f6d73672e76616c75650000000000000000000000000000000000000000000000600082015250565b600061079c600983610653565b91506107a782610766565b602082019050919050565b6000819050919050565b6107c5816107b2565b82525050565b600060408201905081810360008301526107e48161078f565b90506107f360208301846107bc565b92915050565b7f4d7573742073656e64206174206c656173742031207765690000000000000000600082015250565b600061082f601883610653565b915061083a826107f9565b602082019050919050565b6000602082019050818103600083015261085e81610822565b9050919050565b7f436f6465206d7573742062652034206469676974730000000000000000000000600082015250565b600061089b601583610653565b91506108a682610865565b602082019050919050565b600060208201905081810360008301526108ca8161088e565b905091905056fea26469706673582212200f2dda385170cfcfcbf95f9f321acfe34b79c5ea93f61b5d896cb22e75d1d96d64736f6c63430008130033",
  "linkReferences": {},
  "deployedLinkReferences": {}
}