{
  "_format": "hh-sol-artifact-1",
  "contractName": "VaultCodeETHTrue",
  "sourceName": "contracts/VaultCodeETHTrue.sol",
  "abi": [
    {
      "anonymous": false,
      "inputs": [
        {
          "indexed": true,
          "internalType": "address",
          "name": "to",
          "type": "address"
        },
        {
          "indexed": false,
          "internalType": "uint16",
          "name": "code",
          "type": "uint16"
        }
      ],
      "name": "CodeClaimed",
      "type": "event"
    },
    {
      "anonymous": false,
      "inputs": [
        {
          "indexed": true,
          "internalType": "address",
          "name": "from",
          "type": "address"
        },
        {
          "indexed": false,
          "internalType": "uint16",
          "name": "code",
          "type": "uint16"
        }
      ],
      "name": "CodeCreated",
      "type": "event"
    },
    {
      "inputs": [
        {
          "internalType": "uint16",
          "name": "",
          "type": "uint16"
        }
      ],
      "name": "codeOwner",
      "outputs": [
        {
          "internalType": "address",
          "name": "",
          "type": "address"
        }
      ],
      "stateMutability": "view",
      "type": "function"
    },
    {
      "inputs": [
        {
          "internalType": "uint16",
          "name": "",
          "type": "uint16"
        }
      ],
      "name": "codeUsed",
      "outputs": [
        {
          "internalType": "bool",
          "name": "",
          "type": "bool"
        }
      ],
      "stateMutability": "view",
      "type": "function"
    },
    {
      "inputs": [
        {
          "internalType": "uint16",
          "name": "code",
          "type": "uint16"
        }
      ],
      "name": "deposit",
      "outputs": [],
      "stateMutability": "payable",
      "type": "function"
    },
    {
      "inputs": [
        {
          "internalType": "uint16",
          "name": "code",
          "type": "uint16"
        }
      ],
      "name": "withdraw",
      "outputs": [],
      "stateMutability": "nonpayable",
      "type": "function"
    },
    {
      "stateMutability": "payable",
      "type": "receive"
    }
  ],
  "bytecode": "0x608060405234801561001057600080fd5b5061083c806100206000396000f3fe6080604052600436106100435760003560e01c80633d9728391461004f5780639289d0c114610078578063b126bcd3146100b5578063c9c0c77a146100f25761004a565b3661004a57005b600080fd5b34801561005b57600080fd5b506100766004803603810190610071919061055c565b61010e565b005b34801561008457600080fd5b5061009f600480360381019061009a919061055c565b6102ec565b6040516100ac91906105a4565b60405180910390f35b3480156100c157600080fd5b506100dc60048036038101906100d7919061055c565b61030c565b6040516100e99190610600565b60405180910390f35b61010c6004803603810190610107919061055c565b61033f565b005b600073ffffffffffffffffffffffffffffffffffffffff166000808361ffff1661ffff16815260200190815260200160002060009054906101000a900473ffffffffffffffffffffffffffffffffffffffff1673ffffffffffffffffffffffffffffffffffffffff16036101b7576040517f08c379a00000000000000000000000000000000000000000000000000000000081526004016101ae90610678565b60405180910390fd5b600160008261ffff1661ffff16815260200190815260200160002060009054906101000a900460ff1615610220576040517f08c379a0000000000000000000000000000000000000000000000000000000008152600401610217906106e4565b60405180910390fd5b60018060008361ffff1661ffff16815260200190815260200160002060006101000a81548160ff0219169083151502179055503373ffffffffffffffffffffffffffffffffffffffff166108fc60019081150290604051600060405180830381858888f1935050505015801561029a573d6000803e3d6000fd5b503373ffffffffffffffffffffffffffffffffffffffff167f72d0020af4c321724d16dec666042f6d564a2ee223698ba2e09b53452e0e96dd826040516102e19190610713565b60405180910390a250565b60016020528060005260406000206000915054906101000a900460ff1681565b60006020528060005260406000206000915054906101000a900473ffffffffffffffffffffffffffffffffffffffff1681565b60013414610382576040517f08c379a00000000000000000000000000000000000000000000000000000000081526004016103799061077a565b60405180910390fd5b6127108161ffff16106103ca576040517f08c379a00000000000000000000000000000000000000000000000000000000081526004016103c1906107e6565b60405180910390fd5b600073ffffffffffffffffffffffffffffffffffffffff166000808361ffff1661ffff16815260200190815260200160002060009054906101000a900473ffffffffffffffffffffffffffffffffffffffff1673ffffffffffffffffffffffffffffffffffffffff1614610473576040517f08c379a000000000000000000000000000000000000000000000000000000000815260040161046a906106e4565b60405180910390fd5b336000808361ffff1661ffff16815260200190815260200160002060006101000a81548173ffffffffffffffffffffffffffffffffffffffff021916908373ffffffffffffffffffffffffffffffffffffffff1602179055503373ffffffffffffffffffffffffffffffffffffffff167f347f0f44fc933a57d53feea656c607e4925d15eab2f98eb0337528dea2975085826040516105129190610713565b60405180910390a250565b600080fd5b600061ffff82169050919050565b61053981610522565b811461054457600080fd5b50565b60008135905061055681610530565b92915050565b6000602082840312156105725761057161051d565b5b600061058084828501610547565b91505092915050565b60008115159050919050565b61059e81610589565b82525050565b60006020820190506105b96000830184610595565b92915050565b600073ffffffffffffffffffffffffffffffffffffffff82169050919050565b60006105ea826105bf565b9050919050565b6105fa816105df565b82525050565b600060208201905061061560008301846105f1565b92915050565b600082825260208201905092915050565b7f496e76616c696420636f64650000000000000000000000000000000000000000600082015250565b6000610662600c8361061b565b915061066d8261062c565b602082019050919050565b6000602082019050818103600083015261069181610655565b9050919050565b7f436f646520616c72656164792075736564000000000000000000000000000000600082015250565b60006106ce60118361061b565b91506106d982610698565b602082019050919050565b600060208201905081810360008301526106fd816106c1565b9050919050565b61070d81610522565b82525050565b60006020820190506107286000830184610704565b92915050565b7f4d7573742073656e642065786163746c79203120776569000000000000000000600082015250565b600061076460178361061b565b915061076f8261072e565b602082019050919050565b6000602082019050818103600083015261079381610757565b9050919050565b7f436f6465206d7573742062652034206469676974730000000000000000000000600082015250565b60006107d060158361061b565b91506107db8261079a565b602082019050919050565b600060208201905081810360008301526107ff816107c3565b905091905056fea2646970667358221220f6209773d073ab61797206ac7bd3282949c3698772ac684839951473f137e22c64736f6c63430008130033",
  "linkReferences": {},
  "deployedLinkReferences": {}
}