{
  "_format": "hh-sol-artifact-1",
  "contractName": "SendETHZ",
  "sourceName": "contracts/SendETHZ.sol",
  "abi": [
    {
      "anonymous": false,
      "inputs": [
        {
          "indexed": true,
          "internalType": "address",
          "name": "from",
          "type": "address"
        },
        {
          "indexed": false,
          "internalType": "uint256",
          "name": "amount",
          "type": "uint256"
        }
      ],
      "name": "Deposited",
      "type": "event"
    },
    {
      "anonymous": false,
      "inputs": [
        {
          "indexed": true,
          "internalType": "address",
          "name": "to",
          "type": "address"
        },
        {
          "indexed": false,
          "internalType": "uint256",
          "name": "amount",
          "type": "uint256"
        }
      ],
      "name": "Withdrawn",
      "type": "event"
    },
    {
      "inputs": [],
      "name": "deposit",
      "outputs": [],
      "stateMutability": "payable",
      "type": "function"
    },
    {
      "inputs": [],
      "name": "withdraw",
      "outputs": [],
      "stateMutability": "nonpayable",
      "type": "function"
    },
    {
      "stateMutability": "payable",
      "type": "receive"
    }
  ],
  "bytecode": "0x608060405234801561001057600080fd5b506103bc806100206000396000f3fe60806040526004361061002d5760003560e01c80633ccfd60b14610039578063d0e30db01461005057610034565b3661003457005b600080fd5b34801561004557600080fd5b5061004e61005a565b005b610058610159565b005b60003373ffffffffffffffffffffffffffffffffffffffff1660016040516100819061021e565b60006040518083038185875af1925050503d80600081146100be576040519150601f19603f3d011682016040523d82523d6000602084013e6100c3565b606091505b5050905080610107576040517f08c379a00000000000000000000000000000000000000000000000000000000081526004016100fe90610290565b60405180910390fd5b3373ffffffffffffffffffffffffffffffffffffffff167f7084f5476618d8e60b11ef0d7d3f06914655adb8793e28ff7f018d4c76d505d5600160405161014e91906102ff565b60405180910390a250565b6001341461019c576040517f08c379a000000000000000000000000000000000000000000000000000000000815260040161019390610366565b60405180910390fd5b3373ffffffffffffffffffffffffffffffffffffffff167f2da466a7b24304f47e87fa2e1e5a81b9831ce54fec19055ce277ca2f39ba42c460016040516101e391906102ff565b60405180910390a2565b600081905092915050565b50565b60006102086000836101ed565b9150610213826101f8565b600082019050919050565b6000610229826101fb565b9150819050919050565b600082825260208201905092915050565b7f5769746864726177206661696c65640000000000000000000000000000000000600082015250565b600061027a600f83610233565b915061028582610244565b602082019050919050565b600060208201905081810360008301526102a98161026d565b9050919050565b6000819050919050565b6000819050919050565b6000819050919050565b60006102e96102e46102df846102b0565b6102c4565b6102ba565b9050919050565b6102f9816102ce565b82525050565b600060208201905061031460008301846102f0565b92915050565b7f4465706f736974206d7573742062652065786163746c79203120776569000000600082015250565b6000610350601d83610233565b915061035b8261031a565b602082019050919050565b6000602082019050818103600083015261037f81610343565b905091905056fea2646970667358221220cde06f7a2d6c4f7861a0084c7f6b9080b90b34bdc764038ef1d1100180dc6e7064736f6c63430008130033",
  "linkReferences": {},
  "deployedLinkReferences": {}
}